:0300000002008675
:10000300C2CA75C83075CBFF75CAF7D2CA75985284
:10001300223099FDC299F59922E4936006120014E7
:10002300A380F6227830E660061200140880F722D7
:100033001B5B33313B316D576861742069732079E1
:100043006F7572206E616D653F0A0D1B5B33306DFA
:10005300000A0D1B5B33346D48656C6C6F20000A1E
:100063000D003098FDC298E59912001422783012E1
:100073000065C0E0C39410D0E04005F608B84DEF2A
:10008300E4F62275817F75E800759500759E00750D
:10009300F80012000390003312001C12007090004D
:0F00A3005412001C12002790006212001C80FEF5
:00000001FF
