:0300000002029B5E
:0100030032CA
:03000B0002024BA3
:0100130032BA
:01001B0032B2
:0100230032AA
:03002B0002026569
:10002E00C00078BE00000000D8FAD00022C000C088
:10003E0001793278DFD8FED9FADAF6D001D0002273
:10004E00740D120112EBC4540F4430120112742EAF
:10005E00120112EB540F4430120112EAC4540F4431
:10006E0030120112EA540F44301201122290020E85
:10007E00E5F0540F93F58FEBC4540F93F594EB54B6
:10008E000F93F593EAC4540F93F592EA540F93F538
:10009E009122E4FCFBFA7D10E9A2E7E833F8E9339C
:1000AE00F9EA3AD4FAEB3BD4FBEC3CD4FCDDE92282
:1000BE00E4C2FBD312020592E3A2F212020592E20F
:1000CE00A2F012020592E1A2F112020592E0F9E409
:1000DE00D312020592E7C312020592E6C31202057D
:1000EE0092E5C312020592E4C312020592E3C31213
:1000FE00020592E2C312020592E1C312020592E0DA
:10010E00F8D2FB2210990280FBF5992210980280FA
:10011E00FBE59922E4936006120112A380F622D227
:10012E009412002EC29412002E22A2E79286A2E60C
:10013E009297A2E59296A2E4929512012DA2E392D5
:10014E0086A2E29297A2E19296A2E0929512012DDA
:10015E0022D292020138C292020138C294C293C0D6
:10016E00027A2812003BD0027433120164743312E7
:10017E00016474321201647428120164740C120149
:10018E00647401120164C0027A0212003BD0022292
:10019E00E493600612015FA380F62244404480B2CD
:1001AE00EB020164C0E0E8C4540F443012015FE872
:1001BE00540F443012015FD0E0220D0A4C544332EA
:1001CE0033303820746573742070726F6772616D8E
:1001DE000D0A0048656C6C6F3231330075CBFF75BC
:1001EE00CAF775C8347598522275E80075950022C5
:1001FE00C2F9C2FAD2FB2292F9D2FAA2F8C2FA22BC
:10020E0040792430191202780010C28C74F055898E
:10021E004401F589758CF5758A27C28DD28C308D87
:10022E00FDC28C22120218DAFB22E58954F0440139
:10023E00F589758CFD758A5AD2A9D28C223275C871
:10024E000075CDF575CC2775CBF575CA27E4F5305D
:10025E00F531D2ADD2CA22C2CFC0E0C0D00530E552
:10026E003070020531E530B4F41EE531B40119D217
:10027E0000B2E8B28CE4F530F531E53220E8042422
:10028E000180022499D4F532D0D0D0E03275817F2E
:10029E001201F71201EA1201FE759AFF759BFF1209
:1002AE000169C0E07401141201ABD0E0C083C082BA
:1002BE00C0E09001E112019ED0E0D082D083B2EC7A
:1002CE00E5E85407F5F01200BE1200A012007B12F2
:1002DE00004EC0E07401141201ABD0E0C083C082A6
:1002EE00C0E09001E112019ED0E0D082D0837AFA74
:0702FE00120232B2EC80C9CC
:00000001FF
