:0300000002062EC7
:0100030032CA
:03000B000205A546
:0100130032BA
:01001B0032B2
:0100230032AA
:03002B000205C704
:10002E00C00078BE00000000D8FAD000229005680B
:10003E00E5F0540F93F58FEBC4540F93F594EB54F6
:10004E000F93F593EAC4540F93F592EA540F93F578
:10005E009122E4FCFBFA7D10E9A2E7E833F8E933DC
:10006E00F9EA3AD4FAEB3BD4FBEC3CD4FCDDE922C2
:10007E00C28E53890F438920438780758DFD758B02
:10008E00FDD28E7598522275E80075950022C2F940
:10009E00C2FAD2FB2292F9D2FAA2F8C2FA22E4C232
:1000AE00FBD31200A392E3A2F21200A392E2A2F0FB
:1000BE001200A392E1A2F11200A392E0F9E4D3128E
:1000CE0000A392E7C31200A392E6C31200A392E527
:1000DE00C31200A392E4C31200A392E3C31200A3BF
:1000EE0092E2C31200A392E1C31200A392E0F8D2EF
:1000FE00FB22740D120135EBC4540F44301201353E
:10010E00742E120135EB540F4430120135EAC454EB
:10011E000F4430120135EA540F44301201352210CB
:10012E0099028003F599223099FDC299F599221012
:10013E00980280FBE59922C000C001793278DFD8A1
:10014E00FED9FADAF6D001D00022D29412002EC2D5
:10015E009412002E22A2E79286A2E69297A2E59230
:10016E0096A2E49295120158A2E39286A2E2929789
:10017E00A2E19296A2E0929512015822D292020129
:10018E0063C292020163C294C293C0027A28120122
:10019E0045D002743312018F743312018F743212F0
:1001AE00018F742812018F740C12018F74011201C9
:1001BE008FC0027A02120145D00222E49360061229
:1001CE00018AA380F6224440448002018FC0E0E8F9
:1001DE00C4540F443012018AE8540F443012018A7D
:1001EE00D0E022C282780112022EE5F0C454F0D281
:1001FE00E7F812022EE95403D4F562785512022E56
:10020E008961D28222C0E0E8C4540F443012013515
:10021E00E8540F4430120135D0E022D2A0C2812220
:10022E00C0E079007A08E833F89280D281A2A0E982
:10023E0033F9C281DAF0D0E022E493600612013580
:04024E00A380F62271
:10025200C0E0C0D0C000C001C002E4F53EF53FF5E9
:1002620040F541F5427A20E539A2E779047836E68D
:1002720033F608D9FA7905783EE636D4F608D9F984
:10028200DAE5D002D001D000D0D0D0E022C0E0C068
:10029200D0C000C001C002E4F53EF53FF540F54193
:1002A200F5427A20E539A2E779047836E633F60892
:1002B200D9FA7905783EC0D0E6243320E70224D06B
:1002C20020E30224FDD0D033F608D9EADAD6D002F0
:1002D200D001D000D0D0D0E022C0E0C0D0C000C059
:1002E20001C0027A207905C37842E613C0D030E714
:1002F2000224D030E30224FDF618D0D0D9EC7904E0
:100302007839E613F618D9FADADBD002D001D00038
:10031200D0D0D0E022C0E0C0D0E536253AF536E5AF
:1003220037353BF537E538353CF538E539353DF5B8
:1003320039D0D0D0E022C0E0C0D0C3E536953AF53E
:1003420036E537953BF537E538953CF538E539958F
:100352003DF539D0D0D0E022C0E0C0D0C3E536951B
:100362003AE537953BE538953CE539953D9202D023
:10037200D0D0E022C0E0C0D0C3E53A9536E53B9547
:1003820037E53C9538E53D95399202D0D0D0E02250
:10039200C0E0C0D0C202C3E53A95367014E53B9581
:1003A20037700EE53C95387008E53D95397002D2FC
:1003B20002D0D0D0E022120392200203020376225E
:1003C20012039220020302035A22C0E0C0F0C0D0FE
:1003D200C000C001C002C003E536853AF0A4F8A906
:1003E200F0E537853AF0A429F9E435F0FAE53685E7
:1003F2003BF0A429F9E5F03AFAE433FBE538853A13
:10040200F0A42AFAE5F03BFBE537853BF0A42AFA93
:10041200E5F03BFBE536853CF0A42AFAE5F03BFB30
:10042200E539853AF0A42BFBE538853BF0A42BFB9C
:10043200E537853CF0A42BFBE536853DF0A42BFB8C
:100442008B398A3889378836D003D002D001D00060
:10045200D0D0D0F0D0E022C0E0C0D0C000C001C0F7
:1004620002C003C0047C20E4F8F9FAFBC3E536338A
:10047200F536E53733F537E53833F538E53933F511
:1004820039E833F8E933F9EA33FAEB33FBC3E89599
:100492003AE9953BEA953CEB953D4013E8953AF8ED
:1004A200E9953BF9EA953CFAEB953DFB433601DCD5
:1004B200BBD004D003D002D001D000D0D0D0E022F3
:1004C200C0E0856136856237753800753900753A46
:1004D2009A753B01753C00753D001203CC753AFFDD
:1004E200753B03753C00753D00120459753A117550
:1004F2003B01753C00753D00120338120252853EE5
:1005020063853F64D0E022C0E0856136856237753D
:100512003800753900753AE5753B65753C00753DE7
:10052200001203CC753AA0753B86753C01753D00FF
:10053200120459120252853E65853F66D0E0220DB3
:100542000A4C54433233303820746573742070720D
:100552006F6772616D0D0A0048656C6F32313371DD
:100562007771000D0A0040792430191202780010C8
:10057200C28C74F055894401F589758CF5758A270A
:10058200C28DD28C308DFDC28C22120572DAFB2212
:10059200E58954F04401F589758CFD758A5AD2A912
:1005A200D28C22758CFD758A5A3275C80075CDF5CC
:1005B20075CC2775CBF575CA27B2E9E4F530F5316C
:1005C200D2ADD2CA22C2CFC0E0C0D00530E5307071
:1005D200020531E530B4F44FE531B4014AD200E40A
:1005E200C0E07401141201D4D0E0C000A83412019A
:1005F200DBD000C0E07404141201D4D0E0C000A823
:10060200331201DBD000F530F531E5732401F573C7
:100612001207D4E5332401D4F533B4600A753300EC
:10062200E5342401D4F534D0D0D0E03275817F1284
:1006320005921205AC12009512007E12009C120562
:10064200921205AC120229E4F56B756B1E756C3CB7
:10065200756D23756E41756F197570007571007532
:100662007200753400750200757300757400759A16
:10067200FF759BFF120194D2AFB2ECD200753350DA
:10068200120870E5E85407F5F01200AC1200607A27
:10069200FA20F91CC0027A32120145D00220F91068
:1006A20030F9FDC2CAE4F530F531F532D2CA800321
:1006B2003000D0C200C0E0740F141201D4D0E0C0E8
:1006C20000A8711201DBD000E571B400317534006D
:1006D20075330030A12230A20B30A30D30A41430A8
:1006E200A50C801A1209178012120986800D120AAF
:1006F200768008120A0780030207A4020685B40165
:100702002C75356475740585653675370075380046
:10071200753900856B3A753B00753C00753D0012DA
:10072200035A30027DE534B401750207C3B4020EE8
:10073200753514757402E573B56C641207A4B403BD
:10074200267535647574058565367537007538000C
:10075200753900856D3A753B00753C00753D001298
:10076200035A30023D8038B4040E75351475740591
:10077200E573B56E2A1207A4B405247535007574A5
:1007820000856536753700753800753900753A2071
:10079200753B00753C00753D0012035A20020302AE
:1007A2000685C0027A32120145D0027533007534D3
:1007B20000757300E5712401B40612757100020719
:1007C200A17571007535007574000207A1F57102FB
:1007D20007A175F0031201F1C000A865120509D046
:1007E20000753E00753F007540007541007542007E
:1007F2001202DB853663853764E565F565E565D408
:10080200F5658565368566377538007539001202DB
:1008120052900565120247C000A83F120213D00091
:10082200C000A83E120213D000C0E07409141201E5
:10083200D4D0E0C000A83F1201DBD000C0E0740BAE
:10084200141201D4D0E0C000A83E1201DBD0009007
:100852000565120247C000A864120213D000C0004E
:10086200A863120213D00090056512024722C0E06D
:100872007405141201D6D0E0856C367537007538D0
:1008820000753900120252C000A83F1201DBD000ED
:10089200C0E07407141201D6D0E0C000A83E1201D5
:1008A200DBD000C0E07400141201D6D0E0856B36B4
:1008B200120252C000A83F1201DBD000C0E0740255
:1008C200141201D6D0E0C000A83E1201DBD0008590
:1008D2006E36120252C0E0740F141201D6D0E0C07C
:1008E20000A83E1201DBD000C0E0740A141201D647
:1008F200D0E0856D36120252C000A83F1201DBD053
:1009020000C0E0740C141201D6D0E0C000A83E1260
:1009120001DBD00022C0027A32120145D002E56B1F
:100922002401B4AB30756B82C0E07400141201D69E
:10093200D0E0856B36120252C000A83F1201DBD014
:1009420000C0E07402141201D6D0E0C000A83E122A
:1009520001DBD00022F56BC0E07400141201D6D086
:10096200E0856B36120252C000A83F1201DBD000B4
:10097200C0E07402141201D6D0E0C000A83E1201F9
:10098200DBD00022C0027A32120145D002E56C248B
:1009920001B47939756C3CC0E07405141201D6D0EB
:1009A200E0856C36753700753800753900120252D1
:1009B200C000A83F1201DBD000C0E074071412018E
:1009C200D6D0E0C000A83E1201DBD00022F56CC0F8
:1009D200E07405141201D6D0E0856C3675370075C7
:1009E2003800753900120252C000A83F1201DBD054
:1009F20000C0E07407141201D6D0E0C000A83E1275
:100A020001DBD00022C0027A32120145D002E56D2C
:100A12002401B4E630756DD9C0E0740A141201D60F
:100A2200D0E0856D36120252C000A83F1201DBD021
:100A320000C0E0740C141201D6D0E0C000A83E122F
:100A420001DBD00022F56DC0E0740A141201D6D089
:100A5200E0856D36120252C000A83F1201DBD000C1
:100A6200C0E0740C141201D6D0E0C000A83E1201FE
:100A7200DBD00022C0027A32120145D002E56E2498
:100A820001B44C1D756E2D856E36120252C0E07493
:100A92000F141201D6D0E0C000A83E1201DBD00034
:100AA20022F56E856E36120252C0E0740F141201E6
:100AB200D6D0E0C000A83E1201DBD00022E572B41D
:100AC20005357572008572367537007538007539CF
:100AD2000085743A753B00753C00753D001203C2F7
:100AE200200205E4F5018002D2012401E501B400EF
:0B0AF20003C28322D28322F57280CA67
:00000001FF
