:0300000002067B7A
:0100030032CA
:03000B000205F2F9
:0100130032BA
:01001B0032B2
:0100230032AA
:03002B00020614B6
:10002E00C00078BE00000000D8FAD00022900595DE
:10003E00E5F0540F93F58FEBC4540F93F594EB54F6
:10004E000F93F593EAC4540F93F592EA540F93F578
:10005E009122E4FCFBFA7D10E9A2E7E833F8E933DC
:10006E00F9EA3AD4FAEB3BD4FBEC3CD4FCDDE922C2
:10007E00C28E53890F438920438780758DFD758B02
:10008E00FDD28E7598522275E80075950022C2F940
:10009E00C2FAD2FB2292F9D2FAA2F8C2FA22E4C232
:1000AE00FBD31200A392E3A2F21200A392E2A2F0FB
:1000BE001200A392E1A2F11200A392E0F9E4D3128E
:1000CE0000A392E7C31200A392E6C31200A392E527
:1000DE00C31200A392E4C31200A392E3C31200A3BF
:1000EE0092E2C31200A392E1C31200A392E0F8D2EF
:1000FE00FB22740D120135EBC4540F44301201353E
:10010E00742E120135EB540F4430120135EAC454EB
:10011E000F4430120135EA540F44301201352210CB
:10012E0099028003F599223099FDC299F599221012
:10013E00980280FBE59922C000C001793278DFD8A1
:10014E00FED9FADAF6D001D00022D29412002EC2D5
:10015E009412002E22A2E79286A2E69297A2E59230
:10016E0096A2E49295120158A2E39286A2E2929789
:10017E00A2E19296A2E0929512015822D292020129
:10018E0063C292020163C294C293C0027A28120122
:10019E0045D002743312018F743312018F743212F0
:1001AE00018F742812018F740C12018F74011201C9
:1001BE008FC0027A02120145D00222E49360061229
:1001CE00018AA380F6224440448002018FC0E0E8F9
:1001DE00C4540F443012018AE8540F443012018A7D
:1001EE00D0E022C282780112022DE5F0C454F0D282
:1001FE00E7F812022DE95403F562785512022D89A3
:10020E0061D28222C0E0E8C4540F4430120135E8B6
:10021E00540F4430120135D0E022D2A0C28122C048
:10022E00E079007A08E833F89280D281A2A0E9330F
:10023E00F9C281DAF0D0E022E4936006120135A310
:03024E0080F62215
:10025100C0E0C0D0C000C001C002E4F53EF53FF5EA
:1002610040F541F5427A20E539A2E779047836E68E
:1002710033F608D9FA7905783EE636D4F608D9F985
:10028100DAE5D002D001D000D0D0D0E022C0E0C069
:10029100D0C000C001C002E4F53EF53FF540F54194
:1002A100F5427A20E539A2E779047836E633F60893
:1002B100D9FA7905783EC0D0E6243320E70224D06C
:1002C10020E30224FDD0D033F608D9EADAD6D002F1
:1002D100D001D000D0D0D0E022C0E0C0D0C000C05A
:1002E10001C0027A207905C37842E613C0D030E715
:1002F1000224D030E30224FDF618D0D0D9EC7904E1
:100301007839E613F618D9FADADBD002D001D00039
:10031100D0D0D0E022C0E0C0D0E536253AF536E5B0
:1003210037353BF537E538353CF538E539353DF5B9
:1003310039D0D0D0E022C0E0C0D0C3E536953AF53F
:1003410036E537953BF537E538953CF538E5399590
:100351003DF539D0D0D0E022C0E0C0D0C3E536951C
:100361003AE537953BE538953CE539953D9202D024
:10037100D0D0E022C0E0C0D0C3E53A9536E53B9548
:1003810037E53C9538E53D95399202D0D0D0E02251
:10039100C0E0C0D0C202C3E53A95367014E53B9582
:1003A10037700EE53C95387008E53D95397002D2FD
:1003B10002D0D0D0E0221203912002030203752261
:1003C10012039120020302035922C0E0C0F0C0D001
:1003D100C000C001C002C003E536853AF0A4F8A907
:1003E100F0E537853AF0A429F9E435F0FAE53685E8
:1003F1003BF0A429F9E5F03AFAE433FBE538853A14
:10040100F0A42AFAE5F03BFBE537853BF0A42AFA94
:10041100E5F03BFBE536853CF0A42AFAE5F03BFB31
:10042100E539853AF0A42BFBE538853BF0A42BFB9D
:10043100E537853CF0A42BFBE536853DF0A42BFB8D
:100441008B398A3889378836D003D002D001D00061
:10045100D0D0D0F0D0E022C0E0C0D0C000C001C0F8
:1004610002C003C0047C20E4F8F9FAFBC3E536338B
:10047100F536E53733F537E53833F538E53933F512
:1004810039E833F8E933F9EA33FAEB33FBC3E8959A
:100491003AE9953BEA953CEB953D4013E8953AF8EE
:1004A100E9953BF9EA953CFAEB953DFB433601DCD6
:1004B100BBD004D003D002D001D000D0D0D0E022F4
:1004C100C0E0856136856237753800753900753A47
:1004D1009A753B01753C00753D001203CB753AFFDF
:1004E100753B03753C00753D00120458753A117552
:1004F1003B01753C00753D00120337120251853EE8
:1005010063853F64D0E022C0E0E4F536856136853D
:100511006237753800753900E4F53A753AE5753B8F
:1005210065753C00753D001203CBE4F53A753AA0C0
:10053100753B86753C01753D00120458E4F53A128D
:100541000251853E65853F66D0E02285653E856620
:100551003F1202DA753A19753B00753C00753D0092
:10056100120316120251853E6B853F6C220D0A4C17
:1005710054433233303820746573742070726F675E
:1005810072616D0D0A0048656C6F3231337177719C
:10059100000D0A00407924301912027800109005EC
:1005A10095E56C540F93F58EE56BC4540F93F59458
:1005B100E56B540F93F59375921C75914622C28C8D
:1005C10074F055894401F589758CF5758A27C28DBA
:1005D100D28C308DFDC28C221205BFDAFB22E58957
:1005E10054F04401F589758CFD758A5AD2A9D28CD3
:1005F10022758CFD758A5A3275C80075CDF575CC9A
:100601002775CBF575CA27B2E9E4F530F531D2ADDE
:10061100D2CA22C2CFC0E0C0D00530E53070020599
:1006210031E530B4F44FE531B4014AD200E4C0E021
:100631007401141201D4D0E0C000A8341201DBD03F
:1006410000C0E07404141201D4D0E0C000A8331239
:1006510001DBD000F530F531E5762401F57612089D
:1006610021E5332401D4F533B4600A753300E53450
:100671002401D4F534D0D0D0E03275817F1205DF6A
:100681001205F912009512007E12009C1205DF126C
:1006910005F9120228E4F56E756E1E756F3C7570D2
:1006A1002375714175721975730075740075750044
:1006B100753400750200757600757700759AFF75BF
:1006C1009BFF120194D2AFB2ECD2007533501208E5
:1006D10084E5E85407F5F01200AC1200607AFA20C4
:1006E100F91CC0027A32120145D00220F91030F90A
:1006F100FDC2CAE4F530F531F532D2CA80033000CB
:10070100D0C200C0E0740F141201D4D0E0C000A820
:10071100741201DBD000E574B40031753400753317
:100721000030A12230A20B30A30D30A41430A50C4F
:10073100801A12092B801212099A800D120A8A80DE
:1007410008120A1B80030207F10206D2B4012C75BC
:1007510035647577058565367537007538007539E7
:1007610000856E3A753B00753C00753D00120359DA
:1007710030027DE534B40175020810B4020E7535FE
:1007810014757702E576B56F641207F1B403267527
:1007910035647577058565367537007538007539A7
:1007A1000085703A753B00753C00753D0012035998
:1007B10030023D8038B4040E753514757705E57641
:1007C100B5712A1207F1B4052475350075770085D6
:1007D1006536753700753800753900753A20753BF7
:1007E10000753C00753D001203592002030206D238
:1007F100C0027A32120145D002753300753400759A
:100801007600E5742401B406127574000207EE75D2
:1008110074007535007577000207EEF5740207EE76
:1008210075F0001201F1C000A8631204C1D0007577
:10083100F0031201F1C000A865120508D0001205ED
:100841004CC000A86C120212D000C000A86B1202AA
:1008510012D000C0E07409141201D4D0E0C000A885
:100861006C1201DBD000C0E0740B141201D4D0E093
:10087100C000A86B1201DBD0009005921202461253
:10088100059F22C0E07405141201D6D0E0856F36B1
:10089100753700753800753900120251C000A83F44
:1008A1001201DBD000C0E07407141201D6D0E0C001
:1008B10000A83E1201DBD000C0E07400141201D682
:1008C100D0E0856E36120251C000A83F1201DBD084
:1008D10000C0E07402141201D6D0E0C000A83E129C
:1008E10001DBD000857136120251C0E0740F141281
:1008F10001D6D0E0C000A83E1201DBD000C0E074F8
:100901000A141201D6D0E0857036120251C000A837
:100911003F1201DBD000C0E0740C141201D6D0E00C
:10092100C000A83E1201DBD00022C0027A321201BF
:1009310045D002E56E2401B4AB30756E82C0E0741F
:1009410000141201D6D0E0856E36120251C000A803
:100951003F1201DBD000C0E07402141201D6D0E0D6
:10096100C000A83E1201DBD00022F56EC0E0740089
:10097100141201D6D0E0856E36120251C000A83F94
:100981001201DBD000C0E07402141201D6D0E0C025
:1009910000A83E1201DBD00022C0027A32120145CA
:1009A100D002E56F2401B47939756F3CC0E074055C
:1009B100141201D6D0E0856F367537007538007591
:1009C1003900120251C000A83F1201DBD000C0E083
:1009D1007407141201D6D0E0C000A83E1201DBD08A
:1009E1000022F56FC0E07405141201D6D0E0856FC6
:1009F10036753700753800753900120251C000A8EC
:100A01003F1201DBD000C0E07407141201D6D0E020
:100A1100C000A83E1201DBD00022C0027A321201CE
:100A210045D002E5702401B4E6307570D9C0E07498
:100A31000A141201D6D0E0857036120251C000A806
:100A41003F1201DBD000C0E0740C141201D6D0E0DB
:100A5100C000A83E1201DBD00022F570C0E0740A8C
:100A6100141201D6D0E0857036120251C000A83FA1
:100A71001201DBD000C0E0740C141201D6D0E0C02A
:100A810000A83E1201DBD00022C0027A32120145D9
:100A9100D002E5712401B44C1D75712D857136129A
:100AA1000251C0E0740F141201D6D0E0C000A83E7C
:100AB1001201DBD00022F571857136120251C0E0BE
:100AC100740F141201D6D0E0C000A83E1201DBD091
:100AD1000022E575B40535757500857536753700E5
:100AE10075380075390085773A753B00753C00759E
:100AF1003D001203C1200205E4F5018002D2012468
:100B010001E501B40003C28322D28322F57580CAB4
:00000001FF
