:03000000020631C4
:0100030032CA
:03000B0002057873
:0100130032BA
:01001B0032B2
:0100230032AA
:03002B0002059A31
:10002E00C00078BE00000000D8FAD0002290053B38
:10003E00E5F0540F93F58FEBC4540F93F594EB54F6
:10004E000F93F593EAC4540F93F592EA540F93F578
:10005E009122E4FCFBFA7D10E9A2E7E833F8E933DC
:10006E00F9EA3AD4FAEB3BD4FBEC3CD4FCDDE922C2
:10007E00C28E53890F438920438780758DFD758B02
:10008E00FDD28E7598522275E80075950022C2F940
:10009E00C2FAD2FB2292F9D2FAA2F8C2FA22E4C232
:1000AE00FBD31200A392E3A2F21200A392E2A2F0FB
:1000BE001200A392E1A2F11200A392E0F9E4D3128E
:1000CE0000A392E7C31200A392E6C31200A392E527
:1000DE00C31200A392E4C31200A392E3C31200A3BF
:1000EE0092E2C31200A392E1C31200A392E0F8D2EF
:1000FE00FB22740D120135EBC4540F44301201353E
:10010E00742E120135EB540F4430120135EAC454EB
:10011E000F4430120135EA540F44301201352210CB
:10012E0099028003F599223099FDC299F599221012
:10013E00980280FBE59922C000C001793278DFD8A1
:10014E00FED9FADAF6D001D00022D29412002EC2D5
:10015E009412002E22A2E79286A2E69297A2E59230
:10016E0096A2E49295120158A2E39286A2E2929789
:10017E00A2E19296A2E0929512015822D292020129
:10018E0063C292020163C294C293C0027A28120122
:10019E0045D002743312018F743312018F743212F0
:1001AE00018F742812018F740C12018F74011201C9
:1001BE008FC0027A02120145D00222E49360061229
:1001CE00018AA380F6224440448002018FC0E0E8F9
:1001DE00C4540F443012018AE8540F443012018A7D
:1001EE00D0E022C282780112022EE5F0C454F0D281
:1001FE00E7F812022EE95403D4F562785512022E56
:10020E008961D28222C0E0E8C4540F443012013515
:10021E00E8540F4430120135D0E022D2A0C2812220
:10022E00C0E079007A08E833F89280D281A2A0E982
:10023E0033F9C281DAF0D0E022E493600612013580
:04024E00A380F62271
:10025200C0E0C0D0C000C001C002E4F53EF53FF5E9
:1002620040F541F5427A20E539A2E779047836E68D
:1002720033F608D9FA7905783EE636D4F608D9F984
:10028200DAE5D002D001D000D0D0D0E022C0E0C068
:10029200D0C000C001C002E4F53EF53FF540F54193
:1002A200F5427A20E539A2E779047836E633F60892
:1002B200D9FA7905783EC0D0E6243320E70224D06B
:1002C20020E30224FDD0D033F608D9EADAD6D002F0
:1002D200D001D000D0D0D0E022C0E0C0D0C000C059
:1002E20001C0027A207905C37842E613C0D030E714
:1002F2000224D030E30224FDF618D0D0D9EC7904E0
:100302007839E613F618D9FADADBD002D001D00038
:10031200D0D0D0E022C0E0C0D0E536253AF536E5AF
:1003220037353BF537E538353CF538E539353DF5B8
:1003320039D0D0D0E022C0E0C0D0C3E536953AF53E
:1003420036E537953BF537E538953CF538E539958F
:100352003DF539D0D0D0E022C0E0C0D0C3E536951B
:100362003AE537953BE538953CE539953D9202D023
:10037200D0D0E022C0E0C0D0C3E53A9536E53B9547
:1003820037E53C9538E53D95399202D0D0D0E02250
:10039200C0E0C0D0C202C3E53A95367014E53B9581
:1003A20037700EE53C95387008E53D95397002D2FC
:1003B20002D0D0D0E022120392200203020376225E
:1003C20012039220020302035A22C0E0C0F0C0D0FE
:1003D200C000C001C002C003E536853AF0A4F8A906
:1003E200F0E537853AF0A429F9E435F0FAE53685E7
:1003F2003BF0A429F9E5F03AFAE433FBE538853A13
:10040200F0A42AFAE5F03BFBE537853BF0A42AFA93
:10041200E5F03BFBE536853CF0A42AFAE5F03BFB30
:10042200E539853AF0A42BFBE538853BF0A42BFB9C
:10043200E537853CF0A42BFBE536853DF0A42BFB8C
:100442008B398A3889378836D003D002D001D00060
:10045200D0D0D0F0D0E022C0E0C0D0C000C001C0F7
:1004620002C003C0047C20E4F8F9FAFBC3E536338A
:10047200F536E53733F537E53833F538E53933F511
:1004820039E833F8E933F9EA33FAEB33FBC3E89599
:100492003AE9953BEA953CEB953D4013E8953AF8ED
:1004A200E9953BF9EA953CFAEB953DFB433601DCD5
:1004B200BBD004D003D002D001D000D0D0D0E022F3
:1004C200C0E07536187537007538007539001202AC
:1004D20052853E63853F64D0E022C0E08561368567
:1004E2006237753800753900753AE5753B65753CBC
:1004F20000753D001203CC753AA0753B86753C0130
:10050200753D00120459120252853E65853F66D040
:10051200E0220D0A4C544332333038207465737430
:100522002070726F6772616D0D0A0048656C6F32E0
:100532003133717771000D0A0040792430191202AB
:10054200780010C28C74F055894401F589758CF5D8
:10055200758A27C28DD28C308DFDC28C2212054540
:10056200DAFB22E58954F04401F589758CFD758A20
:100572005AD2A9D28C22758CFD758A5A3275C8005E
:1005820075CDF575CC2775CBF575CA27B2E9E4F5BB
:1005920030F531D2ADD2CA22C2CFC0E0C0D00530D0
:1005A200E53070020531E530B4F47FE531B4017A0B
:1005B200D200120ACCE4C0E07401141201D4D0E0DB
:1005C200C000A8341201DBD000C0E0740414120190
:1005D200D4D0E0C000A8331201DBD000F530F531F1
:1005E200E5732401F5738574367537007538007527
:1005F200390085353A85363B753C00753D0012035E
:10060200CC753A64753B00753C00753D0012045987
:100612008536741207D7E5332401D4F533B4600A62
:10062200753300E5342401D4F534D0D0D0E03275EE
:10063200817F12056512057F12009512007E12005D
:100642009C12056512057F120229E4F56B756B1E7B
:10065200756C3C756D23756E41756F1975700075FB
:10066200710075720075340075020075730075743F
:1006720000759AFF759BFF120194D2AFB2ECD200C3
:1006820075335012087DE5E85407F5F01200AC12FC
:1006920000607AFA20F91CC0027A32120145D002B7
:1006A20020F91030F9FDC2CAE4F530F531F532D245
:1006B200CA80033000D0C200C0E0740F141201D40B
:1006C200D0E0C000A8711201DBD000E571B40031A6
:1006D20075340075330030A12230A20B30A30D30E7
:1006E200A41430A50C801A120924801212099380D6
:1006F2000D120A838008120A1480030207A7020659
:1007020088B4012C753564757405856536753700B6
:10071200753800753900856B3A753B00753C00757C
:100722003D0012035A30027DE534B401750207C65A
:10073200B4020E753514757402E573B56C64120754
:10074200A7B403267535647574058565367537005B
:10075200753800753900856D3A753B00753C00753A
:100762003D0012035A30023D8038B4040E75351430
:10077200757405E573B56E2A1207A7B4052475359D
:100782000075740085653675370075380075390057
:10079200753A20753B00753C00753D0012035A20E6
:1007A2000203020688C0027A32120145D002753372
:1007B20000753400757300E5712401B40612757179
:1007C200000207A47571007535007574000207A454
:1007D200F5710207A475F0001201F1C000A86312BE
:1007E20004C2D00075F0031201F1C000A865120422
:1007F200DCD00085633E753F007540007541007591
:1008020042001202DB853663853764E565F565854E
:1008120065368566377538007539001202529005C3
:1008220038120247C000A83F120213D000C000A82D
:100832003E120213D000C0E07409141201D4D0E0B9
:10084200C000A83F1201DBD000C0E0740B141201FB
:10085200D4D0E0C000A83E1201DBD00090053812CF
:100862000247C000A864120213D000C000A863129D
:100872000213D00090053812024722C0E07405141A
:100882001201D6D0E0856C3675370075380075399F
:1008920000120252C000A83F1201DBD000C0E07477
:1008A20007141201D6D0E0C000A83E1201DBD0002E
:1008B200C0E07400141201D6D0E0856B36120252E9
:1008C200C000A83F1201DBD000C0E0740214120184
:1008D200D6D0E0C000A83E1201DBD000856E3612F1
:1008E2000252C0E0740F141201D6D0E0C000A83E3C
:1008F2001201DBD000C0E0740A141201D6D0E085E8
:100902006D36120252C000A83F1201DBD000C0E0D7
:10091200740C141201D6D0E0C000A83E1201DBD044
:100922000022C0027A32120145D002E56B2401B4E2
:10093200AB30756B82C0E07400141201D6D0E08532
:100942006B36120252C000A83F1201DBD000C0E099
:100952007402141201D6D0E0C000A83E1201DBD00E
:100962000022F56BC0E07400141201D6D0E0856B52
:1009720036120252C000A83F1201DBD000C0E07460
:1009820002141201D6D0E0C000A83E1201DBD00052
:1009920022C0027A32120145D002E56C2401B479F8
:1009A20039756C3CC0E07405141201D6D0E0856C38
:1009B20036753700753800753900120252C000A82A
:1009C2003F1201DBD000C0E07407141201D6D0E060
:1009D200C000A83E1201DBD00022F56CC0E0740515
:1009E200141201D6D0E0856C367537007538007563
:1009F2003900120252C000A83F1201DBD000C0E051
:100A02007407141201D6D0E0C000A83E1201DBD058
:100A12000022C0027A32120145D002E56D2401B4EF
:100A2200E630756DD9C0E0740A141201D6D0E085A3
:100A32006D36120252C000A83F1201DBD000C0E0A6
:100A4200740C141201D6D0E0C000A83E1201DBD013
:100A52000022F56DC0E0740A141201D6D0E0856D53
:100A620036120252C000A83F1201DBD000C0E0746F
:100A72000C141201D6D0E0C000A83E1201DBD00057
:100A820022C0027A32120145D002E56E2401B44C32
:100A92001D756E2D856E36120252C0E0740F14124F
:100AA20001D6D0E0C000A83E1201DBD00022F56ED4
:100AB200856E36120252C0E0740F141201D6D0E0D5
:100AC200C000A83E1201DBD00022E572B4053575E4
:100AD2007200857236753700753800753900857475
:100AE2003A753B00753C00753D001203C2200205B9
:100AF200E4F5018002D2012401E501B40003C283BE
:080B020022D28322F57280CAA1
:00000001FF
