:03000000020636BF
:0100030032CA
:03000B000205AD3E
:0100130032BA
:01001B0032B2
:0100230032AA
:03002B000205CFFC
:10002E00C00078BE00000000D8FAD0002290057003
:10003E00E5F0540F93F58FEBC4540F93F594EB54F6
:10004E000F93F593EAC4540F93F592EA540F93F578
:10005E009122E4FCFBFA7D10E9A2E7E833F8E933DC
:10006E00F9EA3AD4FAEB3BD4FBEC3CD4FCDDE922C2
:10007E00C28E53890F438920438780758DFD758B02
:10008E00FDD28E7598522275E80075950022C2F940
:10009E00C2FAD2FB2292F9D2FAA2F8C2FA22E4C232
:1000AE00FBD31200A392E3A2F21200A392E2A2F0FB
:1000BE001200A392E1A2F11200A392E0F9E4D3128E
:1000CE0000A392E7C31200A392E6C31200A392E527
:1000DE00C31200A392E4C31200A392E3C31200A3BF
:1000EE0092E2C31200A392E1C31200A392E0F8D2EF
:1000FE00FB22740D120135EBC4540F44301201353E
:10010E00742E120135EB540F4430120135EAC454EB
:10011E000F4430120135EA540F44301201352210CB
:10012E0099028003F599223099FDC299F599221012
:10013E00980280FBE59922C000C001793278DFD8A1
:10014E00FED9FADAF6D001D00022D29412002EC2D5
:10015E009412002E22A2E79286A2E69297A2E59230
:10016E0096A2E49295120158A2E39286A2E2929789
:10017E00A2E19296A2E0929512015822D292020129
:10018E0063C292020163C294C293C0027A28120122
:10019E0045D002743312018F743312018F743212F0
:1001AE00018F742812018F740C12018F74011201C9
:1001BE008FC0027A02120145D00222E49360061229
:1001CE00018AA380F6224440448002018FC0E0E8F9
:1001DE00C4540F443012018AE8540F443012018A7D
:1001EE00D0E022C282780112022DE5F0C454F0D282
:1001FE00E7F812022DE95403F562785512022D89A3
:10020E0061D28222C0E0E8C4540F4430120135E8B6
:10021E00540F4430120135D0E022D2A0C28122C048
:10022E00E079007A08E833F89280D281A2A0E9330F
:10023E00F9C281DAF0D0E022E4936006120135A310
:03024E0080F62215
:10025100C0E0C0D0C000C001C002E4F53EF53FF5EA
:1002610040F541F5427A20E539A2E779047836E68E
:1002710033F608D9FA7905783EE636D4F608D9F985
:10028100DAE5D002D001D000D0D0D0E022C0E0C069
:10029100D0C000C001C002E4F53EF53FF540F54194
:1002A100F5427A20E539A2E779047836E633F60893
:1002B100D9FA7905783EC0D0E6243320E70224D06C
:1002C10020E30224FDD0D033F608D9EADAD6D002F1
:1002D100D001D000D0D0D0E022C0E0C0D0C000C05A
:1002E10001C0027A207905C37842E613C0D030E715
:1002F1000224D030E30224FDF618D0D0D9EC7904E1
:100301007839E613F618D9FADADBD002D001D00039
:10031100D0D0D0E022C0E0C0D0E536253AF536E5B0
:1003210037353BF537E538353CF538E539353DF5B9
:1003310039D0D0D0E022C0E0C0D0C3E536953AF53F
:1003410036E537953BF537E538953CF538E5399590
:100351003DF539D0D0D0E022C0E0C0D0C3E536951C
:100361003AE537953BE538953CE539953D9202D024
:10037100D0D0E022C0E0C0D0C3E53A9536E53B9548
:1003810037E53C9538E53D95399202D0D0D0E02251
:10039100C0E0C0D0C202C3E53A95367014E53B9582
:1003A10037700EE53C95387008E53D95397002D2FD
:1003B10002D0D0D0E0221203912002030203752261
:1003C10012039120020302035922C0E0C0F0C0D001
:1003D100C000C001C002C003E536853AF0A4F8A907
:1003E100F0E537853AF0A429F9E435F0FAE53685E8
:1003F1003BF0A429F9E5F03AFAE433FBE538853A14
:10040100F0A42AFAE5F03BFBE537853BF0A42AFA94
:10041100E5F03BFBE536853CF0A42AFAE5F03BFB31
:10042100E539853AF0A42BFBE538853BF0A42BFB9D
:10043100E537853CF0A42BFBE536853DF0A42BFB8D
:100441008B398A3889378836D003D002D001D00061
:10045100D0D0D0F0D0E022C0E0C0D0C000C001C0F8
:1004610002C003C0047C20E4F8F9FAFBC3E536338B
:10047100F536E53733F537E53833F538E53933F512
:1004810039E833F8E933F9EA33FAEB33FBC3E8959A
:100491003AE9953BEA953CEB953D4013E8953AF8EE
:1004A100E9953BF9EA953CFAEB953DFB433601DCD6
:1004B100BBD004D003D002D001D000D0D0D0E022F4
:1004C100C0E0856136856237753800753900753A47
:1004D1009A753B01753C00753D001203CB753AFFDF
:1004E100753B03753C00753D00120458753A117552
:1004F1003B01753C00753D00120337120251853EE8
:1005010063853F64D0E022C0E0E4F536856136853D
:100511006237753800753900E4F53A753AE5753B8F
:1005210065753C00753D001203CBE4F53A753AA0C0
:10053100753B86753C01753D00120458E4F53A851A
:100541003665853766D0E0220D0A4C54433233308C
:100551003820746573742070726F6772616D0D0A53
:100561000048656C6F323133717771000D0A0040BC
:10057100792430191202780010C28C74F055894424
:1005810001F589758CF5758A27C28DD28C308DFD68
:10059100C28C2212057ADAFB22E58954F04401F576
:1005A10089758CFD758A5AD2A9D28C22758CFD75FC
:1005B1008A5A3275C80075CDF575CC2775CBF5759E
:1005C100CA27B2E9E4F530F531D2ADD2CA22C2CFA1
:1005D100C0E0C0D00530E53070020531E530B4F43B
:1005E1004FE531B4014AD200E4C0E07401141201B4
:1005F100D4D0E0C000A8341201DBD000C0E0740404
:10060100141201D4D0E0C000A8331201DBD000F5F0
:1006110030F531E5732401F5731207DCE53324016C
:10062100D4F533B4600A753300E5342401D4F534CC
:10063100D0D0D0E03275817F12059A1205B4120034
:100641009512007E12009C12059A1205B41202281E
:10065100E4F56B756B1E756C3C756D23756E41759C
:100661006F1975700075710075720075340075022F
:1006710000757300757400759AFF759BFF120194E4
:10068100D2AFB2ECD20075335012086FE5E85407CF
:10069100F5F01200AC1200607AFA20F91CC0027A5F
:1006A10032120145D00220F91030F9FDC2CAE4F539
:1006B10030F531F532D2CA80033000D0C200C0E03B
:1006C100740F141201D4D0E0C000A8711201DBD064
:1006D10000E571B4003175340075330030A122306A
:1006E100A20B30A30D30A41430A50C801A120916E8
:1006F1008012120985800D120A758008120A06807F
:10070100030207AC02068DB4012C753564757405BE
:10071100856536753700753800753900856B3A7512
:100721003B00753C00753D0012035930027DE534F4
:10073100B401750207CBB4020E753514757402E568
:1007410073B56C641207ACB4032675356475740512
:10075100856536753700753800753900856D3A75D0
:100761003B00753C00753D0012035930023D803855
:10077100B4040E753514757405E573B56E2A120748
:10078100ACB4052475350075740085653675370080
:10079100753800753900753A20753B00753C007558
:1007A1003D0012035920020302068DC0027A321263
:1007B1000145D002753300753400757300E571246D
:1007C10001B406127571000207A975710075350033
:1007D1007574000207A9F5710207A975F0031201EA
:1007E100F1C000A865120508D000753E00753F00F4
:1007F1007540007541007542001202DA8536638545
:10080100376485653685663775380075390012029B
:100811005190056D120246C000A83F120212D0008D
:10082100C000A83E120212D000C0E07409141201E7
:10083100D4D0E0C000A83F1201DBD000C0E0740BAF
:10084100141201D4D0E0C000A83E1201DBD0009008
:10085100056D120246C000A864120212D000C00049
:10086100A863120212D00090056D12024622C0E068
:100871007405141201D6D0E0856C367537007538D1
:1008810000753900120251C000A83F1201DBD000EF
:10089100C0E07407141201D6D0E0C000A83E1201D6
:1008A100DBD000C0E07400141201D6D0E0856B36B5
:1008B100120251C000A83F1201DBD000C0E0740257
:1008C100141201D6D0E0C000A83E1201DBD0008591
:1008D1006E36120251C0E0740F141201D6D0E0C07E
:1008E10000A83E1201DBD000C0E0740A141201D648
:1008F100D0E0856D36120251C000A83F1201DBD055
:1009010000C0E0740C141201D6D0E0C000A83E1261
:1009110001DBD00022C0027A32120145D002E56B20
:100921002401B4AB30756B82C0E07400141201D69F
:10093100D0E0856B36120251C000A83F1201DBD016
:1009410000C0E07402141201D6D0E0C000A83E122B
:1009510001DBD00022F56BC0E07400141201D6D087
:10096100E0856B36120251C000A83F1201DBD000B6
:10097100C0E07402141201D6D0E0C000A83E1201FA
:10098100DBD00022C0027A32120145D002E56C248C
:1009910001B47939756C3CC0E07405141201D6D0EC
:1009A100E0856C36753700753800753900120251D3
:1009B100C000A83F1201DBD000C0E074071412018F
:1009C100D6D0E0C000A83E1201DBD00022F56CC0F9
:1009D100E07405141201D6D0E0856C3675370075C8
:1009E1003800753900120251C000A83F1201DBD056
:1009F10000C0E07407141201D6D0E0C000A83E1276
:100A010001DBD00022C0027A32120145D002E56D2D
:100A11002401B4E630756DD9C0E0740A141201D610
:100A2100D0E0856D36120251C000A83F1201DBD023
:100A310000C0E0740C141201D6D0E0C000A83E1230
:100A410001DBD00022F56DC0E0740A141201D6D08A
:100A5100E0856D36120251C000A83F1201DBD000C3
:100A6100C0E0740C141201D6D0E0C000A83E1201FF
:100A7100DBD00022C0027A32120145D002E56E2499
:100A810001B44C1D756E2D856E36120251C0E07495
:100A91000F141201D6D0E0C000A83E1201DBD00035
:100AA10022F56E856E36120251C0E0740F141201E8
:100AB100D6D0E0C000A83E1201DBD00022E572B41E
:100AC10005357572008572367537007538007539D0
:100AD1000085743A753B00753C00753D001203C1F9
:100AE100200205E4F5018002D2012401E501B400F0
:0B0AF10003C28322D28322F57280CA68
:00000001FF
