:0300000002029F5A
:0100030032CA
:03000B00020247A7
:0100130032BA
:01001B0032B2
:0100230032AA
:03002B0002026965
:10002E00C00078BE00000000D8FAD00022C000C088
:10003E0001793278DFD8FED9FADAF6D001D0002273
:10004E00740D120112EBC4540F4430120112742EAF
:10005E00120112EB540F4430120112EAC4540F4431
:10006E0030120112EA540F44301201122290020A89
:10007E00E5F0540F93F58FEBC4540F93F594EB54B6
:10008E000F93F593EAC4540F93F592EA540F93F538
:10009E009122E4FCFBFA7D10E9A2E7E833F8E9339C
:1000AE00F9EA3AD4FAEB3BD4FBEC3CD4FCDDE92282
:1000BE00E4C2FBD312014892E3A2F212014892E28B
:1000CE00A2F012014892E1A2F112014892E0F9E485
:1000DE00D312014892E7C312014892E6C3120148B7
:1000EE0092E5C312014892E4C312014892E3C3128F
:1000FE00014892E2C312014892E1C312014892E014
:10010E00F8D2FB2210990280FBF5992210980280FA
:10011E00FBE59922E4936006120112A380F6227584
:10012E00CBFF75CAF775C8347598522275E80075FD
:10013E00950022C2F9C2FAD2FB2292F9D2FAA2F8A3
:10014E00C2FA22D29412002EC29412002E22A2E7DC
:10015E009286A2E69297A2E59296A2E49295120159
:10016E0051A2E39286A2E29297A2E19296A2E09227
:10017E009512015122D29202015CC29202015CC21E
:10018E0094C293C0027A2812003BD002743312013B
:10019E00887433120188743212018874281201880F
:1001AE00740C1201887401120188C0027A021200C6
:1001BE003BD00222C28C74F055894401F589758CAE
:1001CE00F5758A27C28DD28C308DFDC28C2212011C
:1001DE00C2DAFB22E4936006120183A380F6224466
:1001EE00404480020188C0E0E8C4540F443012013C
:1001FE0083E8540F4430120183D0E022407924303A
:10020E001912027800100D0A4C5443323330382044
:10021E00746573742070726F6772616D0D0A00439E
:10022E006F756E743A00E58954F04401F589758C4A
:10023E00FD758A5AD2A9D28C22758CFD758A5AB256
:10024E00903275C80075CDF575CC2775CBF575CA8E
:10025E0027E4F530F531D2ADD2CA22C2CFC0E0C00C
:10026E00D00530E53070020531E530B4F41EE531CD
:10027E00B40119D200B2E8B28CE4F530F531E532B2
:10028E0020E804240180022499D4F532D0D0D0E0A5
:10029E003275817FD2AF12025012023412013A121D
:1002AE00014112012D759AFF759BFF12018DC0E061
:1002BE007401141201EFD0E0C083C082C0E090023E
:1002CE002D1201E2D0E0D082D083E5E85407F5F09C
:1002DE001200BE1200A012007B12004EC0E0740786
:1002EE00141201EFD0E0C000A8321201F4D0007A4F
:0402FE00FA1201DC13
:00000001FF
