:0300000002017F7B
:0100030032CA
:01000B0032C2
:0100130032BA
:01001B0032B2
:0100230032AA
:10002B003275CBFF75CAF775C83475985222109983
:10003B000280FBF5992210980280FBE59922E4934C
:10004B006006120039A380F62275E8007595002230
:10005B00C2F9C2FAD2FB2292F9D2FAA2F8C2FA2260
:10006B00E4C2FBD312006292E3A2F212006292E2AC
:10007B00A2F012006292E1A2F112006292E0F9E4A6
:10008B00D312006292E7C312006292E6C3120062BF
:10009B0092E5C312006292E4C312006292E3C312B0
:1000AB00006292E2C312006292E1C312006292E01C
:1000BB00F8D2FB22E4FCFBFA7D10E9A2E7E833F867
:1000CB00E933F9EA3AD4FAEB3BD4FBEC3CD4FCDD54
:1000DB00E922407924301912027800109000DDE5F6
:1000EB00F0540F93F58FEBC4540F93F594EB540F1F
:1000FB0093F593EAC4540F93F592EA540F93F59149
:10010B0022740D120039EBC4540F443012003974B1
:10011B002E120039EB540F4430120039EAC4540F3D
:10012B004430120039EA540F443012003922C28C89
:10013B0074F055894401F589758CF5758A27C28D44
:10014B00D28C308DFDC28C22120139DAFB220D0AC2
:10015B004C54433233303820746573742070726F93
:10016B006772616D0D0A007A5A79FA78FAD8FED95E
:10017B00FADAF62275817F12005412002C12005B02
:10018B00900159120049759A0175E800759500E5C3
:10019B00E85407F5F012006B1200BF1200E71201D2
:0D01AB000C7AFA120153B2EC12017280E2DC
:00000001FF
