:03000000020615E0
:0100030032CA
:03000B0002059655
:0100130032BA
:01001B0032B2
:0100230032AA
:03002B000205B615
:10002E00C00078BE00000000D8FAD000229005591A
:10003E00E5F0540F93F58FEBC4540F93F594EB54F6
:10004E000F93F593EAC4540F93F592EA540F93F578
:10005E009122E4FCFBFA7D10E9A2E7E833F8E933DC
:10006E00F9EA3AD4FAEB3BD4FBEC3CD4FCDDE922C2
:10007E00C28E53890F438920438780758DFD758B02
:10008E00FDD28E7598522275E80075950022C2F940
:10009E00C2FAD2FB2292F9D2FAA2F8C2FA22E4C232
:1000AE00FBD31200A392E3A2F21200A392E2A2F0FB
:1000BE001200A392E1A2F11200A392E0F9E4D3128E
:1000CE0000A392E7C31200A392E6C31200A392E527
:1000DE00C31200A392E4C31200A392E3C31200A3BF
:1000EE0092E2C31200A392E1C31200A392E0F8D2EF
:1000FE00FB22740D120135EBC4540F44301201353E
:10010E00742E120135EB540F4430120135EAC454EB
:10011E000F4430120135EA540F44301201352210CB
:10012E0099028003F599223099FDC299F599221012
:10013E00980280FBE59922C000C001793278DFD8A1
:10014E00FED9FADAF6D001D00022D29412002EC2D5
:10015E009412002E22A2E79286A2E69297A2E59230
:10016E0096A2E49295120158A2E39286A2E2929789
:10017E00A2E19296A2E0929512015822D292020129
:10018E0063C292020163C294C293C0027A28120122
:10019E0045D002743312018F743312018F743212F0
:1001AE00018F742812018F740C12018F74011201C9
:1001BE008FC0027A02120145D00222E49360061229
:1001CE00018AA380F6224440448002018FC0E0E8F9
:1001DE00C4540F443012018AE8540F443012018A7D
:1001EE00D0E022C282780112022EE5F0C454F0D281
:1001FE00E7F812022EE95403D4F560785512022E58
:10020E00895FD28222C0E0E8C4540F443012013517
:10021E00E8540F4430120135D0E022D2A0C2812220
:10022E00C0E079007A08E833F89280D281A2A0E982
:10023E0033F9C281DAF0D0E022E493600612013580
:04024E00A380F62271
:10025200C0E0C0D0C000C001C002E4F53CF53DF5ED
:100262003EF53FF5407A20E537A2E779047834E697
:1002720033F608D9FA7905783CE636D4F608D9F986
:10028200DAE5D002D001D000D0D0D0E022C0E0C068
:10029200D0C000C001C002E4F53CF53DF53EF53F9B
:1002A200F5407A20E537A2E779047834E633F60898
:1002B200D9FA7905783CC0D0E6243320E70224D06D
:1002C20020E30224FDD0D033F608D9EADAD6D002F0
:1002D200D001D000D0D0D0E022C0E0C0D0C000C059
:1002E20001C0027A207905C37840E613C0D030E716
:1002F2000224D030E30224FDF618D0D0D9EC7904E0
:100302007837E613F618D9FADADBD002D001D0003A
:10031200D0D0D0E022C0E0C0D0E5342538F534E5B5
:10032200353539F535E536353AF536E537353BF5C8
:1003320037D0D0D0E022C0E0C0D0C3E5349538F544
:1003420034E5359539F535E536953AF536E537959F
:100352003BF537D0D0D0E022C0E0C0D0C3E5349521
:1003620038E5359539E536953AE537953B9201D032
:10037200D0D0E022C0E0C0D0C3E5389534E539954D
:1003820035E53A9536E53B95379201D0D0D0E0225B
:10039200C0E0C0D0C201C3E53895347014E5399588
:1003A20035700EE53A95367008E53B95377002D206
:1003B20001D0D0D0E0221203922001030203762260
:1003C20012039220010302035A22C0E0C0F0C0D0FF
:1003D200C000C001C002C003E5348538F0A4F8A90A
:1003E200F0E5358538F0A429F9E435F0FAE53485ED
:1003F20039F0A429F9E5F03AFAE433FBE536853819
:10040200F0A42AFAE5F03BFBE5358539F0A42AFA97
:10041200E5F03BFBE534853AF0A42AFAE5F03BFB34
:10042200E5378538F0A42BFBE5368539F0A42BFBA4
:10043200E535853AF0A42BFBE534853BF0A42BFB94
:100442008B378A3689358834D003D002D001D00068
:10045200D0D0D0F0D0E022C0E0C0D0C000C001C0F7
:1004620002C003C0047C20E4F8F9FAFBC3E534338C
:10047200F534E53533F535E53633F536E53733F51D
:1004820037E833F8E933F9EA33FAEB33FBC3E8959B
:1004920038E99539EA953AEB953B4013E89538F8F7
:1004A200E99539F9EA953AFAEB953BFB433401DCDD
:1004B200BBD004D003D002D001D000D0D0D0E022F3
:1004C200C0E0855F34856035753600753700753854
:1004D2009A753901753A00753B001203CC7538FFE5
:1004E200753903753A00753B001204597538117558
:1004F2003901753A00753B00120338120252853CED
:1005020061853D62D0E022C0E0855F34856035754B
:100512003600753700753801753900753A00753B3C
:10052200001203CC120252853C63853D64D0E02266
:100532000D0A4C5443323330382074657374207082
:10054200726F6772616D0D0A0048656C6F323133EC
:10055200717771000D0A0040792430191202780077
:1005620010C28C74F055894401F589758CF5758A31
:1005720027C28DD28C308DFDC28C22120563DAFB2C
:1005820022E58954F04401F589758CFD758A5AD2A9
:10059200A9D28C22758CFD758A5A3275C80075CD28
:1005A200F575CC2775CBF575CA27E4F530F531D250
:1005B200ADD2CA22C2CFC0E0C0D00530E530700251
:1005C2000531E530B4F447E531B40142D200B2E876
:1005D200B28CE4C0E07401141201D4D0E0C000A8CF
:1005E200341201DBD000C0E07403141201D4D0E055
:1005F200C000A8331201DBD000F530F531E533122B
:10060200074D20E804240180022499D4F533D0D088
:10061200D0E03275817F12058312059D120095127A
:10062200007E12009C12058312059D120229E4F538
:1006320069756996756A6E756BDC756C41756D19B5
:10064200756E00756F00757000759AFF759BFF12CD
:100652000194D2AFC0E07401141201D6D0E0C0837D
:10066200C082C0E090054B1201C9D0E0D082D08395
:10067200B2ECD200753305E5E85407F5F01200AC90
:100682001200607AFA20F91CC0027A32120145D0B7
:100692000220F91030F9FDC2CAE4F530F531F53225
:1006A200D2CA80033000D0C200E56FB40011B2EDAF
:1006B20030A10F30A22930A33C30A44F30A56202F2
:1006C2000679C0027A32120145D002E56F2401B4E4
:1006D2000608756F00B2EF0206C1F56F0206C1C0CF
:1006E200027A32120145D002E5692401B4AB4D759C
:1006F20069820206C1C0027A32120145D002E56A5D
:100702002401B47932756A3C0206C1C0027A3212FF
:100712000145D002E56B2401B4E626756BD90206C9
:10072200C1C0027A32120145D002E56C2401B44CF8
:1007320015756C2D0206C1F56A0206C1F56902063D
:10074200C1F56B0206C1F56C0206C175F00012011B
:10075200F1C000A8611204C2D00075F0061201F1C6
:10076200C000A863120509D000C0E0740114120190
:10077200D4D0E0C000A8641201DBD000C0E0740352
:10078200141201D4D0E0C000A8631201DBD000C073
:10079200E07405141201D4D0E0C000A8611201DB9C
:1007A200D000C000A862120213D000C000A86112DB
:1007B2000213D000900556120247C000A86412022C
:1007C20013D000C000A863120213D0009005561285
:0607D2000247221206C4DA
:00000001FF
