:0300000002057185
:0100030032CA
:03000B00020517D4
:0100130032BA
:01001B0032B2
:0100230032AA
:03002B0002053B90
:10002E00C00078BE00000000D8FAD00022C000C088
:10003E0001793278DFD8FED9FADAF6D001D0002273
:10004E00740D120112EBC4540F4430120112742EAF
:10005E00120112EB540F4430120112EAC4540F4431
:10006E0030120112EA540F4430120112229004FA97
:10007E00E5F0540F93F58FEBC4540F93F594EB54B6
:10008E000F93F593EAC4540F93F592EA540F93F538
:10009E009122E4FCFBFA7D10E9A2E7E833F8E9339C
:1000AE00F9EA3AD4FAEB3BD4FBEC3CD4FCDDE92282
:1000BE00E4C2FBD312014892E3A2F212014892E28B
:1000CE00A2F012014892E1A2F112014892E0F9E485
:1000DE00D312014892E7C312014892E6C3120148B7
:1000EE0092E5C312014892E4C312014892E3C3128F
:1000FE00014892E2C312014892E1C312014892E014
:10010E00F8D2FB2210990280FBF5992210980280FA
:10011E00FBE59922E4936006120112A380F6227584
:10012E00CBFF75CAF77588347598522275E800753D
:10013E00950022C2F9C2FAD2FB2292F9D2FAA2F8A3
:10014E00C2FA22D2A0C28122C0E079007A08E83336
:10015E00F89280D281A2A0E933F9C281DAF0D0E020
:10016E0022C0E0E8C4540F4430120112E8540F4488
:10017E0030120112D0E022C0027AFA12003BD002F5
:10018E00C0027AFA12003BD002C0027AFA12003B89
:10019E00D002C0027AFA12003BD002D29412002E84
:1001AE00C29412002E22A2E79286A2E69297A2E5B0
:1001BE009296A2E492951201A9A2E39286A2E292ED
:1001CE0097A2E19296A2E092951201A922D29202F2
:1001DE0001B4C2920201B4C294C293C0027A281230
:1001EE00003BD00274331201E074331201E074321A
:1001FE001201E074281201E0740C1201E074011275
:10020E0001E0C0027A0212003BD00222C28C74F0CE
:10021E0055894401F589758CF5758A27C28DD28C66
:10022E00308DFDC28C2212021ADAFB22E493600694
:10023E001201DBA380F62244404480B2EB0201E0BF
:10024E00C0E0E8C4540F44301201DBE8540F4430D0
:06025E001201DBD0E022DA
:10026400C0E0C0D0C000C001C002E4F53DF53EF5D9
:100274003FF540F5417A20E538A2E779047835E680
:1002840033F608D9FA7905783DE636D4F608D9F973
:10029400DAE5D002D001D000D0D0D0E022C0E0C056
:1002A400D0C000C001C002E4F53DF53EF53FF54085
:1002B400F5417A20E538A2E779047835E633F60883
:1002C400D9FA7905783DC0D0E6243320E70224D05A
:1002D40020E30224FDD0D033F608D9EADAD6D002DE
:1002E400D001D000D0D0D0E022C0E0C0D0C000C047
:1002F40001C0027A207905C37841E613C0D030E703
:100304000224D030E30224FDF618D0D0D9EC7904CD
:100314007838E613F618D9FADADBD002D001D00027
:10032400D0D0D0E022C0E0C0D0E5352539F535E5A0
:1003340036353AF536E537353BF537E538353CF5AE
:1003440038D0D0D0E022C0E0C0D0C3E5359539F52F
:1003540035E536953AF536E537953BF537E5389585
:100364003CF538D0D0D0E022C0E0C0D0C3E535950C
:1003740039E536953AE537953BE538953C9201D019
:10038400D0D0E022C0E0C0D0C3E5399535E53A9538
:1003940036E53B9537E53C95389201D0D0D0E02244
:1003A400C0E0C0D0C201C3E53995357014E53A9573
:1003B40036700EE53B95377008E53C95387002D2EF
:1003C40001D0D0D0E0221203A4200103020388222A
:1003D4001203A420010302036C22C0E0C0F0C0D0C9
:1003E400C000C001C002C003E5358539F0A4F8A9F6
:1003F400F0E5368539F0A429F9E435F0FAE53585D8
:100404003AF0A429F9E5F03AFAE433FBE537853903
:10041400F0A42AFAE5F03BFBE536853AF0A42AFA83
:10042400E5F03BFBE535853BF0A42AFAE5F03BFB20
:10043400E5388539F0A42BFBE537853AF0A42BFB8E
:10044400E536853BF0A42BFBE535853CF0A42BFB7E
:100454008B388A3789368835D003D002D001D00052
:10046400D0D0D0F0D0E022C0E0C0D0C000C001C0E5
:1004740002C003C0047C20E4F8F9FAFBC3E5353379
:10048400F535E53633F536E53733F537E53833F505
:1004940038E833F8E933F9EA33FAEB33FBC3E89588
:1004A40039E9953AEA953BEB953C4013E89539F8E0
:1004B400E9953AF9EA953BFAEB953CFB433501DCC7
:1004C400BBD004D003D002D001D000D0D0D0E022E1
:1004D4000D0A4C54433233303820746573742070E1
:1004E400726F6772616D0D0A0048656C6C6F323112
:1004F40033000D0A002240792430191202780010CA
:10050400E58954F04401F589758CFD758A5AD2A9A0
:10051400D28C22C28D758CFD758A5AB2903275C800
:100524000075CDF575CC2775CBF575CA27E4F53084
:10053400F531D2ADD2CA22C2CFC0E0C0D00530E579
:100544003070020531E530B4F41EE531B40119D23E
:1005540000B2E8B28CE4F530F531E53220E8042449
:100564000180022499D4F532D0D0D0E03275817F55
:1005740012013A12012D120504120522120141D270
:10058400AF759AFF759BFF1201E5D200753200C06A
:10059400E0740114120247D0E0C083C082C0E0902E
:1005A40004ED12023AD0E0D082D083E5E85407F596
:1005B400F01200BE1200A012007B12004EC2CAE468
:1005C400F530F531F532D2CAC200C0E0740E14120F
:1005D4000247D0E0C000A83212024ED0007AFA12CC
:0405E400023480C796
:00000001FF
