:0300000002056C8A
:0100030032CA
:03000B00020509E2
:0100130032BA
:01001B0032B2
:0100230032AA
:03002B00020523A8
:10002E00C00078BE00000000D8FAD00022C000C088
:10003E0001793278DFD8FED9FADAF6D001D0002273
:10004E00740D120112EBC4540F4430120112742EAF
:10005E00120112EB540F4430120112EAC4540F4431
:10006E0030120112EA540F4430120112229004ECA5
:10007E00E5F0540F93F58FEBC4540F93F594EB54B6
:10008E000F93F593EAC4540F93F592EA540F93F538
:10009E009122E4FCFBFA7D10E9A2E7E833F8E9339C
:1000AE00F9EA3AD4FAEB3BD4FBEC3CD4FCDDE92282
:1000BE00E4C2FBD312013B92E3A2F212013B92E2A5
:1000CE00A2F012013B92E1A2F112013B92E0F9E49F
:1000DE00D312013B92E7C312013B92E6C312013BDE
:1000EE0092E5C312013B92E4C312013B92E3C312A9
:1000FE00013B92E2C312013B92E1C312013B92E03B
:10010E00F8D2FB2210990280FBF5992210980280FA
:10011E00FBE59922E4936006120112A380F6227584
:10012E00E80075950022C2F9C2FAD2FB2292F9D2EA
:10013E00FAA2F8C2FA22D2A0C28122C0E079007AD5
:10014E0008E833F89280D281A2A0E933F9C281DAAD
:10015E00F0D0E022C0E0E8C4540F4430120112E89F
:10016E00540F4430120112D0E022C0027AFA12006B
:10017E003BD002C0027AFA12003BD002C0027AFAD9
:10018E0012003BD002C0027AFA12003BD002D29487
:10019E0012002EC29412002E22A2E79286A2E6929E
:1001AE0097A2E59296A2E4929512019CA2E3928602
:1001BE00A2E29297A2E19296A2E0929512019C225F
:1001CE00D2920201A7C2920201A7C294C293C002A8
:1001DE007A2812003BD00274331201D37433120109
:1001EE00D374321201D374281201D3740C1201D3BA
:1001FE0074011201D3C0027A0212003BD00222C255
:10020E008C74F055894401F589758CF5758A27C271
:10021E008DD28C308DFDC28C2212020DDAFB22E4BF
:10022E009360061201CEA380F62244404480B2EBC6
:10023E000201D3C0E0E8C4540F44301201CEE8549A
:09024E000F44301201CED0E02271
:10025700C0E0C0D0C000C001C002E4F53DF53EF5E6
:100267003FF540F5417A20E538A2E779047835E68D
:1002770033F608D9FA7905783DE636D4F608D9F980
:10028700DAE5D002D001D000D0D0D0E022C0E0C063
:10029700D0C000C001C002E4F53DF53EF53FF54092
:1002A700F5417A20E538A2E779047835E633F60890
:1002B700D9FA7905783DC0D0E6243320E70224D067
:1002C70020E30224FDD0D033F608D9EADAD6D002EB
:1002D700D001D000D0D0D0E022C0E0C0D0C000C054
:1002E70001C0027A207905C37841E613C0D030E710
:1002F7000224D030E30224FDF618D0D0D9EC7904DB
:100307007838E613F618D9FADADBD002D001D00034
:10031700D0D0D0E022C0E0C0D0E5352539F535E5AD
:1003270036353AF536E537353BF537E538353CF5BB
:1003370038D0D0D0E022C0E0C0D0C3E5359539F53C
:1003470035E536953AF536E537953BF537E5389592
:100357003CF538D0D0D0E022C0E0C0D0C3E5359519
:1003670039E536953AE537953BE538953C9201D026
:10037700D0D0E022C0E0C0D0C3E5399535E53A9545
:1003870036E53B9537E53C95389201D0D0D0E02251
:10039700C0E0C0D0C201C3E53995357014E53A9580
:1003A70036700EE53B95377008E53C95387002D2FC
:1003B70001D0D0D0E02212039720010302037B2251
:1003C70012039720010302035F22C0E0C0F0C0D0F0
:1003D700C000C001C002C003E5358539F0A4F8A903
:1003E700F0E5368539F0A429F9E435F0FAE53585E5
:1003F7003AF0A429F9E5F03AFAE433FBE537853911
:10040700F0A42AFAE5F03BFBE536853AF0A42AFA90
:10041700E5F03BFBE535853BF0A42AFAE5F03BFB2D
:10042700E5388539F0A42BFBE537853AF0A42BFB9B
:10043700E536853BF0A42BFBE535853CF0A42BFB8B
:100447008B388A3789368835D003D002D001D0005F
:10045700D0D0D0F0D0E022C0E0C0D0C000C001C0F2
:1004670002C003C0047C20E4F8F9FAFBC3E5353386
:10047700F535E53633F536E53733F537E53833F512
:1004870038E833F8E933F9EA33FAEB33FBC3E89595
:1004970039E9953AEA953BEB953C4013E89539F8ED
:1004A700E9953AF9EA953BFAEB953CFB433501DCD4
:1004B700BBD004D003D002D001D000D0D0D0E022EE
:1004C7000D0A4C54433233303820746573742070EE
:1004D700726F6772616D0D0A0048656C6C6F3271DF
:1004E700777131330040792430191202780010E512
:1004F7008954F04401F589758CFD758A5AD2A9D2C1
:100507008C223275C80075CDF575CC2775CBF5757E
:10051700CA27E4F530F531D2ADD2CA22C2CFC0E046
:10052700C0D00530E53070020531E530B4F41EE582
:1005370031B40119D200B2E8B28CE4F530F531E5F7
:100547003220E804240180022499D4F532D0D0D097
:10055700E0329004ECE532C4540F93F592E532543F
:100567000F93F5912275817F12012D1204F6120562
:100577000A759AFF759BFFD2AF1201D8D200C0E06F
:1005870074011412023AD0E0C083C082C0E0900424
:10059700E012022DD0E0D082D083B2ECB2EE7AFA2C
:1005A700C2CAE4F530F531F532D2CAC0027AFA127E
:1005B700003BD002C0027AFA12003BD002C0027A96
:1005C700FA12003BD002C0027AFA12003BD002C2F4
:1005D70000C0E0740E1412023AD0E0C000A8321234
:0B05E7000241D000120559B2EF80B1B4
:00000001FF
