:03000000020628CD
:0100030032CA
:03000B000205A546
:0100130032BA
:01001B0032B2
:0100230032AA
:03002B000205C506
:10002E00C00078BE00000000D8FAD000229005680B
:10003E00E5F0540F93F58FEBC4540F93F594EB54F6
:10004E000F93F593EAC4540F93F592EA540F93F578
:10005E009122E4FCFBFA7D10E9A2E7E833F8E933DC
:10006E00F9EA3AD4FAEB3BD4FBEC3CD4FCDDE922C2
:10007E00C28E53890F438920438780758DFD758B02
:10008E00FDD28E7598522275E80075950022C2F940
:10009E00C2FAD2FB2292F9D2FAA2F8C2FA22E4C232
:1000AE00FBD31200A392E3A2F21200A392E2A2F0FB
:1000BE001200A392E1A2F11200A392E0F9E4D3128E
:1000CE0000A392E7C31200A392E6C31200A392E527
:1000DE00C31200A392E4C31200A392E3C31200A3BF
:1000EE0092E2C31200A392E1C31200A392E0F8D2EF
:1000FE00FB22740D120135EBC4540F44301201353E
:10010E00742E120135EB540F4430120135EAC454EB
:10011E000F4430120135EA540F44301201352210CB
:10012E0099028003F599223099FDC299F599221012
:10013E00980280FBE59922C000C001793278DFD8A1
:10014E00FED9FADAF6D001D00022D29412002EC2D5
:10015E009412002E22A2E79286A2E69297A2E59230
:10016E0096A2E49295120158A2E39286A2E2929789
:10017E00A2E19296A2E0929512015822D292020129
:10018E0063C292020163C294C293C0027A28120122
:10019E0045D002743312018F743312018F743212F0
:1001AE00018F742812018F740C12018F74011201C9
:1001BE008FC0027A02120145D00222E49360061229
:1001CE00018AA380F6224440448002018FC0E0E8F9
:1001DE00C4540F443012018AE8540F443012018A7D
:1001EE00D0E022C282780112022EE5F0C454F0D281
:1001FE00E7F812022EE95403D4F562785512022E56
:10020E008961D28222C0E0E8C4540F443012013515
:10021E00E8540F4430120135D0E022D2A0C2812220
:10022E00C0E079007A08E833F89280D281A2A0E982
:10023E0033F9C281DAF0D0E022E493600612013580
:04024E00A380F62271
:10025200C0E0C0D0C000C001C002E4F53EF53FF5E9
:1002620040F541F5427A20E539A2E779047836E68D
:1002720033F608D9FA7905783EE636D4F608D9F984
:10028200DAE5D002D001D000D0D0D0E022C0E0C068
:10029200D0C000C001C002E4F53EF53FF540F54193
:1002A200F5427A20E539A2E779047836E633F60892
:1002B200D9FA7905783EC0D0E6243320E70224D06B
:1002C20020E30224FDD0D033F608D9EADAD6D002F0
:1002D200D001D000D0D0D0E022C0E0C0D0C000C059
:1002E20001C0027A207905C37842E613C0D030E714
:1002F2000224D030E30224FDF618D0D0D9EC7904E0
:100302007839E613F618D9FADADBD002D001D00038
:10031200D0D0D0E022C0E0C0D0E536253AF536E5AF
:1003220037353BF537E538353CF538E539353DF5B8
:1003320039D0D0D0E022C0E0C0D0C3E536953AF53E
:1003420036E537953BF537E538953CF538E539958F
:100352003DF539D0D0D0E022C0E0C0D0C3E536951B
:100362003AE537953BE538953CE539953D9201D024
:10037200D0D0E022C0E0C0D0C3E53A9536E53B9547
:1003820037E53C9538E53D95399201D0D0D0E02251
:10039200C0E0C0D0C201C3E53A95367014E53B9582
:1003A20037700EE53C95387008E53D95397002D2FC
:1003B20001D0D0D0E0221203922001030203762260
:1003C20012039220010302035A22C0E0C0F0C0D0FF
:1003D200C000C001C002C003E536853AF0A4F8A906
:1003E200F0E537853AF0A429F9E435F0FAE53685E7
:1003F2003BF0A429F9E5F03AFAE433FBE538853A13
:10040200F0A42AFAE5F03BFBE537853BF0A42AFA93
:10041200E5F03BFBE536853CF0A42AFAE5F03BFB30
:10042200E539853AF0A42BFBE538853BF0A42BFB9C
:10043200E537853CF0A42BFBE536853DF0A42BFB8C
:100442008B398A3889378836D003D002D001D00060
:10045200D0D0D0F0D0E022C0E0C0D0C000C001C0F7
:1004620002C003C0047C20E4F8F9FAFBC3E536338A
:10047200F536E53733F537E53833F538E53933F511
:1004820039E833F8E933F9EA33FAEB33FBC3E89599
:100492003AE9953BEA953CEB953D4013E8953AF8ED
:1004A200E9953BF9EA953CFAEB953DFB433601DCD5
:1004B200BBD004D003D002D001D000D0D0D0E022F3
:1004C200C0E0856136856237753800753900753A46
:1004D2009A753B01753C00753D001203CC753AFFDD
:1004E200753B03753C00753D00120459753A117550
:1004F2003B01753C00753D00120338120252853EE5
:1005020063853F64D0E022C0E0856136856237753D
:100512003800753900753AE5753B65753C00753DE7
:10052200001203CC753AA0753B86753C01753D00FF
:10053200120459120252853E65853F66D0E0220DB3
:100542000A4C54433233303820746573742070720D
:100552006F6772616D0D0A0048656C6F32313371DD
:100562007771000D0A0040792430191202780010C8
:10057200C28C74F055894401F589758CF5758A270A
:10058200C28DD28C308DFDC28C22120572DAFB2212
:10059200E58954F04401F589758CFD758A5AD2A912
:1005A200D28C22758CFD758A5A3275C80075CDF5CC
:1005B20075CC2775CBF575CA27E4F530F531D2AD88
:1005C200D2CA22C2CFC0E0C0D00530E530700205E9
:1005D20031E530B4F44BE531B40146D200B28CE4DB
:1005E200C0E07401141201D4D0E0C000A83412019A
:1005F200DBD000C0E07404141201D4D0E0C000A823
:10060200331201DBD000F530F531120784E53324D3
:1006120001D4F533B4600A753300E5342401D4F50E
:1006220034D0D0D0E03275817F1205921205AC121F
:10063200009512007E12009C1205921205AC120265
:1006420029E4F56B756B96756C6E756DDC756E4194
:10065200756F1975700075710075720075340075CB
:100662009AFF759BFF120194D2AFC0E0740114127D
:1006720001D6D0E0C083C082C0E090055A1201C901
:10068200D0E0D082D083B2ECD200753350E5E8548A
:1006920007F5F01200AC1200607AFA20F91CC002D1
:1006A2007A32120145D00220F91030F9FDC2CAE4B3
:1006B200F530F531F532D2CA80033000D0C200E500
:1006C20071B40014B2ED30A12D30A24730A35D30D9
:1006D200A47030A554753300B40118753564757271
:1006E20000E533B46000E56BC3956F50037571028A
:1006F20002068F02068FC0027A32120145D002E54D
:10070200712401B40608757100B2EF0206F5F571A5
:100712000206F5C0027A32120145D002E56B2401CD
:10072200B4AB50756B820206F502075AC0027A32E8
:10073200120145D002E56C2401B47932756C3C0299
:1007420006F5C0027A32120145D002E56D2401B4E9
:10075200E626756DD90206F5C0027A32120145D03D
:1007620002E56E2401B44C15756E2D0206F5F56C8A
:100772000206F5F56B0206F5F56D0206F5F56E0259
:1007820006F575F0001201F1C000A8631204C2D090
:100792000075F0061201F1C000A865120509D0002B
:1007A200E5652563F565E565D4F565C0E074091472
:1007B2001201D4D0E0C000A8661201DBD000C0E074
:1007C200740B141201D4D0E0C000A8651201DBD072
:1007D20000C000A864120213D000C000A863120275
:1007E20013D000900565120247C000A866120213DA
:1007F200D000C000A865120213D000900565120255
:1008020047C000A83F120213D000C000A83E120247
:0D08120013D000900565120247221206F86F
:00000001FF
