:0300000002018278
:0100030032CA
:03000B0002010BE4
:0100130032BA
:01001B0032B2
:0100230032AA
:03002B0002012DA2
:10002E00C00078BE00000000D8FAD00022C000C088
:10003E0001793278DFD8FED9FADAF6D001D0002273
:10004E00D29412002EC29412002E22A2E79286A201
:10005E00E69297A2E59296A2E4929512004EA2E342
:10006E009286A2E29297A2E19296A2E09295120057
:10007E004E22D292020059C292020059C294C293E9
:10008E00C0027A2812003BD00274331200857433FA
:10009E0012008574321200857428120085740C12B9
:1000AE0000857401120085C0027A0212003BD00254
:1000BE0022E4936006120080A380F622444044801E
:1000CE00020085C0E0E8C4540F4430120080E854AA
:1000DE000F4430120080D0E0224243445F636F75BC
:1000EE006E7465723A2078782000E58954F04401E8
:1000FE00F589758CFD758A5AD2A9D28C22758CFD24
:10010E00758A5AB2903275C80075CDF575CC2775C3
:10011E00CBF575CA27E4F530F531D2ADD2CA22C27D
:10012E00CFB291C0E0C0D00530E53070020531E5A8
:10013E0030B4F41EE531B40119D200B2E8B28CE449
:10014E00F530F531E53220E804240180022499D4FB
:10015E00F532D0D0D0E03240792430191202780036
:10016E0010900165E532C4540F93F592E532540FA9
:10017E0093F5912275817F1200F8120114759AFF82
:10018E00759BFF75E800759500D2AF12008AC0E02E
:10019E007401141200CCD0E0C083C082C0E0900085
:1001AE00E71200BFD0E0D082D083D200753200C0FB
:1001BE0083C082C0E09000E71200BFD0E0D082D0B2
:1001CE008320F91CC0027A3212003BD00220F910B3
:1001DE0030F9FDC2CAE4F530F531F532D2CA8003EA
:0B01EE003000CCC20012016F0201BD06
:00000001FF
