:10000000020003758143120059E582600302005427
:10001000758200758300758400758500780079000D
:10002000E8496012E475860093A3758601F0A31871
:10003000B8FFED1980EA7586007582007583007C33
:10004000007D00EC4D600AE4F0A31CBCFFF51D80B0
:10005000F212028712012D80FE90FFF71204027542
:10006000E800759500C2F9D2FAD2FB75820022AA87
:1000700082AB83C2FB7C10EB3392F9C2FAEBCA2548
:10008000E0CA33FB30F8050ABA00010BD2FADCE70C
:10009000D2FBEBC313CA13CAFB8A82740F5BF583CE
:1000A00022AA82AB83ACF0FDC002C003C004C0052D
:1000B000742EC0E07402C0E07480C0E07409C0E037
:1000C0007400C0E07440C0E01203BCE58124F6F582
:1000D00081E50924D090022493F594E50B24D09077
:1000E000022493F593E50C24D090022493F592E535
:1000F0000D24D090022493F59122C28C74F055897E
:100100004401F589758CF5758A27C28DD28C308DA6
:10011000FDC28C22AA82AB83C002C0031200FAD0B7
:1001200003D0021ABAFF011BEA4B70EC227434C0F0
:10013000E07402C0E07480C0E012034C15811581A8
:1001400015817439C0E07402C0E07480C0E012030D
:100150004C158115811581740755E825E025E0FBD4
:100160007A004302104303838A828B8312006FAAB2
:1001700082AB83C002C003120288AC82AD83AEF0B2
:10018000FFC004C005C006C00790000075F0A07451
:1001900040120294AC82AD83AEF0FFE58124FCF501
:1001A00081E4C0E074F0C0E0747FC0E07445C0E05A
:1001B0008C828D838EF0EF120413AC82AD83AEF08F
:1001C000FFE58124FCF581D003D002740755E8F8DF
:1001D0007900C004C005C006C007C004C005C00641
:1001E000C007C002C003C000C001746EC0E074024A
:1001F000C0E07480C0E012034CE58124F5F581D0A5
:1002000007D006D005D0048C828D838EF0EF1200CB
:10021000A1740755E890022493F58F9001F4120120
:1002200014020157C0F9A4B0999282F88090253544
:100230002E3366001B5B324A0043562D3830353270
:1002400020746573742070726F6772616D20666FC1
:1002500072207468652041443739323820696E2035
:10026000746865204445312D536F430D0A00766153
:100270006C5B25645D3D3078253034782C20563D0C
:1002800025352E33660D0022E4AC83AB82FAF97477
:100290008E02053B1205C7BC0003020566EF60FA3B
:1002A00030D502B2D1E583B4FF0302057CE582B408
:1002B000FF0302057C258340072482400B0205666C
:1002C000248314500302057CF582EA8DF0A4A8F083
:1002D000EA8EF0A428F8E435F0F9EB8DF0A428E9D3
:1002E00035F0F9E433CA8FF0A429F9EA35F0FAEBD6
:1002F000F88EF0A429F9EA35F0FAE433FBEC8DF03E
:10030000A429F9EA35F0FAE43BFBE88FF0A42AFAD5
:10031000EB35F0FBE433CCFD8EF0A42AFAEB35F09C
:10032000FBE43CFCED8FF0A42BFBEC35F0FC20E76C
:1003300003120594020545020F81858230858331C1
:1003400085F0328516339003370209D4C0088581C1
:1003500008E50824FBF533E50824FBF88630088619
:10036000310886329003371209D4D00822AA82AB12
:100370000FAC10AD118B828C838DF0EA120F9605B5
:100380000FE4B50F0205102285820F85831085F0DA
:100390001185123085133185143285153390036D24
:1003A0001209D4AA82AB83AC0FAD10AE118C828D32
:1003B000838EF0E4120F968A828B8322C008858197
:1003C00008E50824F8F533E50824FBF8860F0886CD
:1003D00010088611E50824F8F8863008863108866A
:1003E0003290036D1209D4AA82AB83AC0FAD10AE6C
:1003F000118C828D838EF0E4120F968A828B83D0CB
:100400000822AA82AB838B048CCB8ACA75C8347548
:100410009852221205C730D502B2D1BF0009BC00E4
:100420000302058902057CBC0003020566E583B46E
:10043000FF0BE582B4FF03020589020566E582B47D
:10044000FF0302057CC395835007247F400B020500
:1004500066248014500302057CC0E0E4CCCBCAF9CA
:100460008D178E188F19EF54F0C4F51A7583068511
:100470001AF0EB84F582E9C4F9EAC4FAEBC4FBECA8
:10048000540FC47803D6FC18EBD6FB18EAD6FA85CD
:1004900082F0EDA4A8F0FD8582F0EEA428FEE435FC
:1004A000F0F88582F0EFA428FFE435F0F8E99DF933
:1004B000EA9EFAEB9FFBEC98FCAD17AE18AF193033
:1004C000E7101582E92DF9EA3EFAEB3FFBE43CFC2C
:1004D00080EDC082D58398C3E933F9EA33FAEB3370
:1004E000FBEC33FCC3E99DEA9EEB9FEC9400B3E484
:1004F00013F9D002D0E0C44AFAD003D0E0C44BFBD9
:10050000D004D0E0F5F0540FC44CFCD082158230FA
:10051000F40FD3EC13FCEB13FBEA13FAE913F90520
:1005200082E930E70A74012AFAE43BFBE43CFC026E
:10053000055DFCABF0AA83A982749EC2D1F582123C
:100540000594020545B98003EA13B34010EA24017B
:10055000FAE43BFBE43CFC50047C800582BC000ECA
:10056000BB000BBA0008E4F5F0F583F58222A2D1B6
:10057000E582138CF092F78B838A8222E4F583F56F
:100580008275F080F4A2D11322E4F583F58275F030
:10059000C0747F227804EC7011E58224F8500AF5CB
:1005A00082E4C9CACBFCD8EF22EC7820058220E790
:1005B00013D5820122C3E933F9EA33FAEB33FBECBA
:1005C00033FCD8EA158222AA82AB83A2F73392D1F8
:1005D0006002D2F7F582ACF0E58124F9F8E6FD0877
:1005E000E6FE0886F008E6A2F73392D56002D2F75D
:1005F000F583AFF022AA827406C0E07406C0E0C0A2
:1006000022C0238A82220529E4B52902052A22AACA
:100610008274302AFA24C6500A74072AFA3000037A
:100620004302208A820205F5E582FAC4540FF5825E
:10063000C00212060FD002740F5AF58202060FAAEA
:1006400024AB25AC26AD27AE28752F20EE2EFEED6F
:10065000235401FF4206EA2AFAEB33FBEC33FCEDAC
:1006600033FDC3EE952B4008EEC3952BFE430201EC
:10067000D52FD98A248B258C268D278E2822784049
:10068000E624D075F00AA4FA7841E624D02AFA7854
:100690003F8603BB2D04C3E49AFA752B01C3E464BF
:1006A000808AF063F08095F05029752F038A0374D7
:1006B000F6252F401C052BE52F142434F8E52F24B4
:1006C00034F98704A604772E1BEBFA6004052F800B
:1006D000DE8B02EA30E70D783586037836A603789C
:1006E00035762E0AE52D600AE52D04FB252BF52B2A
:1006F0008005300B02052B78348603E4BB2D010402
:10070000FB7006200603300702052B3004030207A6
:10071000C5300557EB600C75822DC0021205F5D06F
:1007200002801C30060C75822BC0021205F5D00227
:10073000800D30070A758220C0021205F5D00278BC
:10074000358604BC2E0C758230C0021205F5D0022D
:10075000152CAC2C152CC3E52B9C40030208097505
:100760008230C0021205F5D00280E7AC2C152CC3F4
:10077000E52B9C500C758220C0021205F5D002803A
:10078000EA78348604BC2D0C75822DC0021205F562
:10079000D002801C30060C75822BC0021205F5D0E9
:1007A00002800D30070A758220C0021205F5D002C2
:1007B00078358604BC2E52758230C0021205F5D001
:1007C00002152C8044EB600E75822DC0021205F5D7
:1007D000D002152C802030060E75822BC002120527
:1007E000F5D002152C800F30070C758220C0021244
:1007F00005F5D002152C78358603BB2E0C7582309A
:10080000C0021205F5D002152C752F01C20DE52F7F
:100810002434F88603BB45030208C6BB2E348A0382
:10082000C3E464808BF063F08095F0500F758230E4
:10083000C0031205F5D0031B8B0280E48B02D20D9E
:10084000E52D7038200B030208C675822E1205F5BF
:100850008074300D278A03EB30E71FC3E464808582
:100860002DF063F08095F0500C758230C0031205B6
:10087000F5D003152D0B8B0280DD8B02300D0EC3DE
:10088000E46480852DF063F08095F05021E52F24FD
:1008900034F886038B82C0021205F5D002300D0EAB
:1008A000E52F2434F88603BB2E028002152D152C6B
:1008B000C3E46480852DF063F08095F04003200D43
:1008C00005052F02080EC3E46480852DF063F080D7
:1008D00095F0500A7582301205F5152D80E8300428
:1008E0000FAA2C152CEA60087582201205F580F1FC
:1008F00022E52D7003300B0D7407252DFAE52CC36E
:100900009AF52C8006E52C24FAF52C752F00783406
:100910008602BA2B0F20060C783476202007057546
:100920002F01052C200419AA2CC3E464808AF063EB
:10093000F08095F0500A7582201205F5152C80E79D
:10094000C20DE52F2434F88602BA00028069BA4548
:100950001F3000027665C3E46480852DF063F0806B
:1009600095F0500A7582301205F5152D80E8D20DEC
:10097000C3E52F9402E433FA7014EA700EC3E46402
:1009800080852DF063F08095F04003300D16E52F43
:100990002434F886028A821205F5E52F24FD5012D0
:1009A000152D800E7402B52F09300B0675822E129C
:1009B00005F5052F020942300419AA2CC3E464800E
:1009C0008AF063F08095F0500A7582201205F515C3
:1009D0002C80E722858222858323E4F529F52AAA43
:1009E00030AB31AC328A828B838CF0120FAFFD7446
:1009F000012AF530E43BF5318C32EDFA7003020F39
:100A00007ABA25028003020F72C204C205C206C26E
:100A100007C208C209C20AC20BC201C202C20375E0
:100A20002B00752C00752DFFAB30AC31AD328B82B5
:100A30008C838DF0120FAFFAA3AB82AC838B308C1A
:100A4000318D32BA25078A821205F580928A06BE58
:100A50003000402E8A06EE24C6402774FFB52D13C1
:100A6000E52C75F00AA4FEEA24D02EF52C70BFD236
:100A70000580BBE52D75F00AA4FEEA24D02EF52DE5
:100A800080ACBA2E0A74FFB52DA4752D00809F8A04
:100A900006BE6100400E8A06EE248540075302DF41
:100AA000D2008002C200BA20028075BA2303020B72
:100AB0002FBA2A03020B34BA2B02805FBA2D0280B0
:100AC00055BA4202805FBA4303020B79BA4403026B
:100AD0000CB4BA4503020CCEBA4603020CCABA479C
:100AE00003020CD2BA4903020CB4BA4C02803BBADE
:100AF0004E03020CD6BA4F03020CBBBA5003020CD1
:100B00004DBA5303020B9DBA5503020CC0BA5803E9
:100B1000020CC5020D00D204020A2ED206020A2ED1
:100B2000D207020A2ED209020A2ED20A020A2ED2B5
:100B30000B020A2E74FFB52D2030090BE53314F893
:100B40008833862C020A2EE53324FEF88833860685
:100B5000088607188E2C020A2E30090BE53314F88C
:100B60008833862D020A2EE53324FEF88833860664
:100B7000088607188E2D020A2E30090AE53314F86C
:100B800088338602800FE53324FEF8883386030815
:100B90008604188B028A821205F5020D05E53324BE
:100BA000FDF88833860308860408860518188B2408
:100BB0008C258D268B828C838DF01210EAAB82AC53
:100BC000838B2E74FFB52D03852E2D20041DC3E5C8
:100BD0002E952C5016E52CC3952EF52CAB2C152CF0
:100BE000EB60087582201205F580F1852482852549
:100BF000838526F0120FAFFBFA6029AB2D152DC3AC
:100C0000E464808BF063F08095F050188A821205BE
:100C1000F5AB24AC25AD260BBB00010C8B248C2539
:100C20008D2680C7200403020D05C3E52E952C40B8
:100C300003020D05E52CC3952EF52CAB2C152CEBE2
:100C40007003020D057582201205F580EEE5332450
:100C5000FDF88833860308860408860518188B2457
:100C60008C258D26E526FB30E7047A438013EB5470
:100C70006060047A50800AEB30E6047A4980027A98
:100C8000588A82C0021205F575823A1205F57582FE
:100C9000301205F57582781205F5D002BA49028046
:100CA0000BBA5002800685258212062885248212FE
:100CB00006288051D208752B0A804A752B0880457A
:100CC000752B0A8040752B10803BD2018037D202F1
:100CD0008033D203802FE53324FDF8883386030860
:100CE000860408860518188B248C258D268B828C0B
:100CF000838DF0E529120F96A3E52A120F96800541
:100D00008A821205F5200106200203300370E533C4
:100D100024FCF888338603088604088605088606BE
:100D20001818188B248C258D268E27E524E525E5BB
:100D300026E5278B828C838DF0EE120FCB74FFB5E6
:100D40002D03752D06300327747F5527FB8B28E56F
:100D500028EB2BFB8B28E52630E70674014528F5A8
:100D600028E52824684006749925284002D20230DC
:100D700002061208F10209DF12067E0209DFE52BE6
:100D800070030209DF7B3930092BE53314F888330F
:100D9000E6FC3395E0FDFEFF8C248D258E268F2703
:100DA00020085EAC247D007E007F008C248D258E83
:100DB000268F27804C300A1FE53324FCF8883386C1
:100DC000040886050886060886071818188C248DDE
:100DD000258E268F27802AE53324FEF88833860463
:100DE00008860518ED3395E0FEFF8C248D258E26B0
:100DF0008F2720080CAC24AD257E007F008E268F27
:100E000027300B43E52445254526452760397408DE
:100E1000B52B0C758230C0031205F5D00380287401
:100E200010B52B23758230C0031205F5D0033000B6
:100E30000C758278C0031205F5D003800A758258BC
:100E4000C0031205F5D003300825AC24AD25AE262D
:100E5000E527FF30E717C3E49CFCE49DFDE49EFE1C
:100E6000E49FFF8C248D258E268F278002C2087573
:100E70002E00D20C8B00752800C00012063FD00057
:100E8000200C0DE528C4FCE6FD4CF6188803800212
:100E9000A628052EB20CE52445254526452770D603
:100EA0008803E52C7003752C0120051A200417E532
:100EB0002E04FCC3952C500E758220C0031205F53C
:100EC000D003152C80E930080E75822DC003120561
:100ED000F5D003152C8024E52E602030060E758297
:100EE0002BC0031205F5D003152C800F30070C75AD
:100EF0008220C0031205F5D003152C20041EAC2C53
:100F0000152CC3E52E9C50273005047C3080027CD4
:100F1000208C82C0031205F5D00380E2C3E52E9534
:100F20002C5009E52CC3952EF52C8003752C008BD5
:100F300000AB2E152EEB6022B20C200C0A08E6C482
:100F4000540FFB8B2880078603740F5BF5288528D8
:100F500082C00012060FD00080D72004030209DFF0
:100F6000AB2C152CEB70030209DF7582201205F5FE
:100F700080EE8A821205F50209DF852982852A839F
:100F800022AA82BA0A0810990280FB75990D10995D
:100F90000280FB8A992220F71030F6118883A882FC
:100FA00020F507F6A88375830022F280F7F022204F
:100FB000F71430F6148883A88220F507E6A8837515
:100FC000830022E280F7E49322E022C0E0F8458229
:100FD000458345F07009F5F0FBFCFDFE021099E831
:100FE00023A2F792E0F8A982AA83D2F7ABF07C00A3
:100FF0007E07C3749798404074FF2EFE740A89F0F0
:10100000A4F985F082740A8AF0A4FA85F083740A40
:101010008BF0A4FB740529F9EA3582FAEB3583FBE2
:10102000740035F0FCC3EC13FCEB13FBEA13FAE994
:1010300013F908EC70EF80BAE8C3947FF88B838EC5
:10104000F0E4FBFCFDFEFF08C3E933F9EA33FAE5FF
:101050008333F583EB3BD4FBEC3CD4FCED3DD4FD7A
:10106000EE3ED4FEEF3FD4FF602D05F074052BD487
:10107000FBE43CD4FCE43DD4FDE43ED4FEE43FD4A8
:10108000FF758204C3EF13FFEE13FEED13FDEC13A7
:10109000FCEB13FBD582EDD8AF7834D0E020E70429
:1010A000762B8002762D087906E7C4540F4430F67B
:1010B00008B90603762E08E7540F4430F60819B92C
:1010C00002E7764508E5F020E704762B8004762DCC
:1010D000F4040875F00A844430F608E5F04430F66C
:1010E00008E4F690003475F04022AA82AB83ACF09D
:1010F0007D007E008A828B838CF0120FAFFFA3AA43
:1011000082AB83EF60070DBD00EA0E80E78D828E13
:10111000832200000000000000000000000000002A
:00000001FF
