:10000000020003758143120059E582600302005427
:10001000758200758300758400758500780079000D
:10002000E8496012E475860093A3758601F0A31871
:10003000B8FFED1980EA7586007582007583007C33
:10004000007D00EC4D600AE4F0A31CBCFFF51D80B0
:10005000F21202A912012780FE90FFF712038175A8
:10006000E800759500C2F9C2FAD2FB75820022AA97
:1000700082AB83C2FB7C0CEBA2E392F9D2FAEBCA0F
:1000800025E0CA33FB30F8050ABA00010BC2FADCDE
:10009000E6D2FB8A82740F5BF58322AA82AB83AC23
:1000A000F0FDC002C003C004C005744FC0E074027C
:1000B000C0E07480C0E07408C0E07400C0E0744028
:1000C000C0E012033BE58124F6F581E50824D090D9
:1000D000024593F594E50A24D090024593F593E503
:1000E0000B24D090024593F592E50C24D090024564
:1000F00093F59122C28C74F055894401F589758C71
:10010000F5758A27C28DD28C308DFDC28C22AA82D1
:10011000AB83C002C0031200F4D003D0021ABAFFAE
:10012000011BEA4B70EC227455C0E07402C0E0740D
:1001300080C0E01202CB158115811581745AC0E090
:100140007402C0E07480C0E01202CB1581158115E5
:10015000817A807B08740755E8FC24F8404DEC2C2C
:100160002C9001657302017D020183020189020165
:100170008F02019502019B0201A10201A77A807BF7
:100180000880287A807B0C80227A807B09801C7A08
:10019000807B0D80167A807B0A80107A807B0E80AF
:1001A0000A7A807B0B80047A807B0F8A828B831291
:1001B000006FAA82AB83C002C0031202AAAC82AD58
:1001C00083AEF0FFE4C0E0C0E0747AC0E07444C0E5
:1001D000E08C828D838EF0EF120392AC82AD83AE01
:1001E000F0FFE58124FCF581D003D002740755E8C7
:1001F000F87900C004C005C006C007C004C005C02F
:1002000006C007C002C003C000C0017490C0E07403
:1002100002C0E07480C0E01202CBE58124F5F581D4
:10022000D007D006D005D0048C828D838EF0EF12DB
:10023000009B740755E890024593F58F9001F412E6
:10024000010E020151C0F9A4B0999282F880902564
:10025000352E3366001B5B324A0043562D3830354D
:100260003220746573742070726F6772616D2066DE
:100270006F7220746865204C5443323330382069E3
:100280006E20746865204445312D536F430D0A007C
:1002900076616C5B25645D3D3078253034782C20A8
:1002A000563D25352E33660D0022E4AC83AB82FA31
:1002B000F9748E0204BA020E50858230858331852E
:1002C000F0328516339002B60208A3C00E85810E67
:1002D000E50E24FBF533E50E24FBF8863008863165
:1002E0000886329002B61208A3D00E22AA82AB0F63
:1002F000AC10AD118B828C838DF0EA120E65050F68
:10030000E4B50F0205102285820F85831085F01158
:100310008512308513318514328515339002EC1225
:1003200008A3AA82AB83AC0FAD10AE118C828D8373
:100330008EF0E4120E658A828B8322C00E85810EB8
:10034000E50E24F8F533E50E24FBF8860F08861039
:10035000088611E50E24F8F88630088631088632C2
:100360009002EC1208A3AA82AB83AC0FAD10AE11C1
:100370008C828D838EF0E4120E658A828B83D00E80
:1003800022AA82AB838B048CCB8ACA75C834759839
:100390005222120ECD30D502B2D1BF0009BC0003EB
:1003A000020EC2020EB5BC0003020E9FE583B4FF2D
:1003B0000BE582B4FF03020EC2020E9FE582B4FF7A
:1003C00003020EB5C395835007247F400B020E9F96
:1003D0002480145003020EB5C0E0E4CCCBCAF98DE2
:1003E000178E188F19EF54F0C4F51A758306851A05
:1003F000F0EB84F582E9C4F9EAC4FAEBC4FBEC54EF
:100400000FC47803D6FC18EBD6FB18EAD6FA85821F
:10041000F0EDA4A8F0FD8582F0EEA428FEE435F00E
:10042000F88582F0EFA428FFE435F0F8E99DF9EAB9
:100430009EFAEB9FFBEC98FCAD17AE18AF1930E7B6
:10044000101582E92DF9EA3EFAEB3FFBE43CFC8013
:10045000EDC082D58398C3E933F9EA33FAEB33FB75
:10046000EC33FCC3E99DEA9EEB9FEC9400B3E413EC
:10047000F9D002D0E0C44AFAD003D0E0C44BFBD09C
:1004800004D0E0F5F0540FC44CFCD082158230F457
:100490000FD3EC13FCEB13FBEA13FAE913F9058213
:1004A000E930E70A74012AFAE43BFBE43CFC020E63
:1004B00096FCABF0AA83A982749EC2D1F582120E7B
:1004C000FB020E7EAA8274D5C0E07404C0E0C02294
:1004D000C0238A82220529E4B52902052A22AA829C
:1004E00074302AFA24C6500A74072AFA30000343EB
:1004F00002208A820204C4E582FAC4540FF582C045
:10050000021204DED002740F5AF5820204DEAA241D
:10051000AB25AC26AD27AE28752F20EE2EFEED23A1
:100520005401FF4206EA2AFAEB33FBEC33FCED33CD
:10053000FDC3EE952B4008EEC3952BFE430201D57B
:100540002FD98A248B258C268D278E28227840E669
:1005500024D075F00AA4FA7841E624D02AFA783F2C
:100560008603BB2D04C3E49AFA752B01C3E46480AF
:100570008AF063F08095F05029752F038A0374F692
:10058000252F401C052BE52F142434F8E52F2434A7
:10059000F98704A604772E1BEBFA6004052F80DE92
:1005A0008B02EA30E70D783586037836A603783576
:1005B000762E0AE52D600AE52D04FB252BF52B8010
:1005C00005300B02052B78348603E4BB2D0104FBB8
:1005D0007006200603300702052B30040302069440
:1005E000300557EB600C75822DC0021204C4D00296
:1005F000801C30060C75822BC0021204C4D002800D
:100600000D30070A758220C0021204C4D00278356A
:100610008604BC2E0C758230C0021204C4D00215B0
:100620002CAC2C152CC3E52B9C40030206D87582FC
:1006300030C0021204C4D00280E7AC2C152CC3E5F4
:100640002B9C500C758220C0021204C4D00280EA98
:1006500078348604BC2D0C75822DC0021204C4D0DF
:1006600002801C30060C75822BC0021204C4D0021A
:10067000800D30070A758220C0021204C4D00278AF
:10068000358604BC2E52758230C0021204C4D002DA
:10069000152C8044EB600E75822DC0021204C4D06C
:1006A00002152C802030060E75822BC0021204C465
:1006B000D002152C800F30070C758220C002120466
:1006C000C4D002152C78358603BB2E0C758230C041
:1006D000021204C4D002152C752F01C20DE52F247F
:1006E00034F88603BB4503020795BB2E348A03C347
:1006F000E464808BF063F08095F0500F758230C019
:10070000031204C4D0031B8B0280E48B02D20DE5DC
:100710002D7038200B0302079575822E1204C480B9
:1007200074300D278A03EB30E71FC3E46480852D06
:10073000F063F08095F0500C758230C0031204C451
:10074000D003152D0B8B0280DD8B02300D0EC3E420
:100750006480852DF063F08095F05021E52F2434DE
:10076000F886038B82C0021204C4D002300D0EE55D
:100770002F2434F88603BB2E028002152D152CC3BE
:10078000E46480852DF063F08095F04003200D0532
:10079000052F0206DDC3E46480852DF063F08095AB
:1007A000F0500A7582301204C4152D80E830040F11
:1007B000AA2C152CEA60087582201204C480F1224C
:1007C000E52D7003300B0D7407252DFAE52CC39A27
:1007D000F52C8006E52C24FAF52C752F007834864C
:1007E00002BA2B0F20060C78347620200705752FCF
:1007F00001052C200419AA2CC3E464808AF063F05C
:100800008095F0500A7582201204C4152C80E7C22E
:100810000DE52F2434F88602BA00028069BA451F1C
:100820003000027665C3E46480852DF063F0809526
:10083000F0500A7582301204C4152D80E8D20DC321
:10084000E52F9402E433FA7014EA700EC3E4648076
:10085000852DF063F08095F04003300D16E52F24D0
:1008600034F886028A821204C4E52F24FD50121542
:100870002D800E7402B52F09300B0675822E1204DE
:10088000C4052F020811300419AA2CC3E464808A1D
:10089000F063F08095F0500A7582201204C4152C84
:1008A00080E722858222858323E4F529F52AAA3070
:1008B000AB31AC328A828B838CF0120F2EFD740127
:1008C0002AF530E43BF5318C32EDFA7003020E4923
:1008D000BA25028003020E41C204C205C206C20745
:1008E000C208C209C20AC20BC201C202C203752BEE
:1008F00000752C00752DFFAB30AC31AD328B828C86
:10090000838DF0120F2EFAA3AB82AC838B308C3127
:100910008D32BA25078A821204C480928A06BE30BC
:1009200000402E8A06EE24C6402774FFB52D13E53D
:100930002C75F00AA4FEEA24D02EF52C70BFD20547
:1009400080BBE52D75F00AA4FEEA24D02EF52D809B
:10095000ACBA2E0A74FFB52DA4752D00809F8A06AF
:10096000BE6100400E8A06EE248540075302DFD2A6
:10097000008002C200BA20028075BA23030209FE79
:10098000BA2A03020A03BA2B02805FBA2D028055ED
:10099000BA4202805FBA4303020A48BA4403020B18
:1009A00083BA4503020B9DBA4603020B99BA47036B
:1009B000020BA1BA4903020B83BA4C02803BBA4E28
:1009C00003020BA5BA4F03020B8ABA5003020B1C99
:1009D000BA5303020A6CBA5503020B8FBA580302CA
:1009E0000B94020BCFD2040208FDD2060208FDD2FE
:1009F000070208FDD2090208FDD20A0208FDD20B47
:100A00000208FD74FFB52D2030090BE53314F8887A
:100A100033862C0208FDE53324FEF8883386060869
:100A20008607188E2C0208FD30090BE53314F88870
:100A300033862D0208FDE53324FEF8883386060848
:100A40008607188E2D0208FD30090AE53314F88850
:100A5000338602800FE53324FEF888338603088648
:100A600004188B028A821204C4020BD4E53324FDDD
:100A7000F88833860308860408860518188B248CAA
:100A8000258D268B828C838DF0121069AB82AC830E
:100A90008B2E74FFB52D03852E2D20041DC3E52E4E
:100AA000952C5016E52CC3952EF52CAB2C152CEB64
:100AB00060087582201204C480F185248285258314
:100AC0008526F0120F2EFBFA6029AB2D152DC3E4FD
:100AD00064808BF063F08095F050188A821204C411
:100AE000AB24AC25AD260BBB00010C8B248C258DD3
:100AF0002680C7200403020BD4C3E52E952C4003A7
:100B0000020BD4E52CC3952EF52CAB2C152CEB70D9
:100B100003020BD47582201204C480EEE53324FD59
:100B2000F88833860308860408860518188B248CF9
:100B3000258D26E526FB30E7047A438013EB5460CD
:100B400060047A50800AEB30E6047A4980027A58D1
:100B50008A82C0021204C475823A1204C4758230BB
:100B60001204C47582781204C4D002BA4902800B00
:100B7000BA500280068525821204F7852482120469
:100B8000F78051D208752B0A804A752B088045756D
:100B90002B0A8040752B10803BD2018037D2028017
:100BA00033D203802FE53324FDF88833860308868B
:100BB0000408860518188B248C258D268B828C833F
:100BC0008DF0E529120E65A3E52A120E6580058ACF
:100BD000821204C4200106200203300370E533248E
:100BE000FCF88833860308860408860508860618FC
:100BF00018188B248C258D268E27E524E525E526DF
:100C0000E5278B828C838DF0EE120F4A74FFB52D91
:100C100003752D06300327747F5527FB8B28E528A5
:100C2000EB2BFB8B28E52630E70674014528F528D9
:100C3000E52824684006749925284002D202300233
:100C4000061207C00208AE12054D0208AEE52B7071
:100C5000030208AE7B3930092BE53314F88833E6FC
:100C6000FC3395E0FDFEFF8C248D258E268F2720FA
:100C7000085EAC247D007E007F008C248D258E26AE
:100C80008F27804C300A1FE53324FCF88833860414
:100C90000886050886060886071818188C248D25EE
:100CA0008E268F27802AE53324FEF88833860408B1
:100CB000860518ED3395E0FEFF8C248D258E268F5A
:100CC0002720080CAC24AD257E007F008E268F27C0
:100CD000300B43E52445254526452760397408B582
:100CE0002B0C758230C0031204C4D003802874100A
:100CF000B52B23758230C0031204C4D00330000C1E
:100D0000758278C0031204C4D003800A758258C06B
:100D1000031204C4D003300825AC24AD25AE26E56B
:100D200027FF30E717C3E49CFCE49DFDE49EFEE44E
:100D30009FFF8C248D258E268F278002C208752E5A
:100D400000D20C8B00752800C00012050ED00020C8
:100D50000C0DE528C4FCE6FD4CF61888038002A6BD
:100D600028052EB20CE52445254526452770D68852
:100D700003E52C7003752C0120051A200417E52EBD
:100D800004FCC3952C500E758220C0031204C4D0FD
:100D900003152C80E930080E75822DC0031204C49F
:100DA000D003152C8024E52E602030060E75822B92
:100DB000C0031204C4D003152C800F30070C7582B9
:100DC00020C0031204C4D003152C20041EAC2C1523
:100DD0002CC3E52E9C50273005047C3080027C20FB
:100DE0008C82C0031204C4D00380E2C3E52E952C8C
:100DF0005009E52CC3952EF52C8003752C008B0033
:100E0000AB2E152EEB6022B20C200C0A08E6C4545F
:100E10000FFB8B2880078603740F5BF528852882DB
:100E2000C0001204DED00080D72004030208AEAB5D
:100E30002C152CEB70030208AE7582201204C480BE
:100E4000EE8A821204C40208AE852982852A832292
:100E5000AA82BA0A0810990280FB75990D109902AE
:100E600080FB8A992220F71030F6118883A882200F
:100E7000F507F6A88375830022F280F7F022B98087
:100E800003EA13B34010EA2401FAE43BFBE43CFC20
:100E900050047C800582BC000EBB000BBA0008E445
:100EA000F5F0F583F58222A2D1E582138CF092F75A
:100EB0008B838A8222E4F583F58275F080F4A2D1D7
:100EC0001322E4F583F58275F0C0747F22AA82AB09
:100ED00083A2F73392D16002D2F7F582ACF0E581BC
:100EE00024F9F8E6FD08E6FE0886F008E6A2F733E6
:100EF00092D56002D2F7F583AFF0227804EC70113E
:100F0000E58224F8500AF582E4C9CACBFCD8EF2266
:100F1000EC7820058220E713D5820122C3E933F95A
:100F2000EA33FAEB33FBEC33FCD8EA15822220F7E4
:100F30001430F6148883A88220F507E6A883758309
:100F40000022E280F7E49322E022C0E0F8458245E7
:100F50008345F07009F5F0FBFCFDFE021018E82354
:100F6000A2F792E0F8A982AA83D2F7ABF07C007EC8
:100F700007C3749798404074FF2EFE740A89F0A44A
:100F8000F985F082740A8AF0A4FA85F083740A8BDA
:100F9000F0A4FB740529F9EA3582FAEB3583FB747A
:100FA0000035F0FCC3EC13FCEB13FBEA13FAE91376
:100FB000F908EC70EF80BAE8C3947FF88B838EF069
:100FC000E4FBFCFDFEFF08C3E933F9EA33FAE583ED
:100FD00033F583EB3BD4FBEC3CD4FCED3DD4FDEE90
:100FE0003ED4FEEF3FD4FF602D05F074052BD4FBFB
:100FF000E43CD4FCE43DD4FDE43ED4FEE43FD4FF25
:10100000758204C3EF13FFEE13FEED13FDEC13FC2A
:10101000EB13FBD582EDD8AF7834D0E020E704762F
:101020002B8002762D087906E7C4540F4430F60869
:10103000B90603762E08E7540F4430F60819B902B2
:10104000E7764508E5F020E704762B8004762DF45A
:10105000040875F00A844430F608E5F04430F608D8
:10106000E4F690003475F04022AA82AB83ACF07DA8
:10107000007E008A828B838CF0120F2EFFA3AA823F
:10108000AB83EF60070DBD00EA0E80E78D828E8393
:10109000220000000000000000000000000000002E
:00000001FF
